{
  "contractName": "Main",
  "abi": [
    {
      "inputs": [],
      "stateMutability": "nonpayable",
      "type": "constructor"
    },
    {
      "inputs": [],
      "name": "admin",
      "outputs": [
        {
          "internalType": "address",
          "name": "",
          "type": "address"
        }
      ],
      "stateMutability": "view",
      "type": "function"
    },
    {
      "inputs": [
        {
          "internalType": "uint256",
          "name": "",
          "type": "uint256"
        }
      ],
      "name": "deployedSessions",
      "outputs": [
        {
          "internalType": "address",
          "name": "",
          "type": "address"
        }
      ],
      "stateMutability": "view",
      "type": "function"
    },
    {
      "inputs": [
        {
          "internalType": "uint256",
          "name": "",
          "type": "uint256"
        }
      ],
      "name": "participantAddr",
      "outputs": [
        {
          "internalType": "address",
          "name": "",
          "type": "address"
        }
      ],
      "stateMutability": "view",
      "type": "function"
    },
    {
      "inputs": [
        {
          "internalType": "address",
          "name": "",
          "type": "address"
        }
      ],
      "name": "participantDetails",
      "outputs": [
        {
          "internalType": "address",
          "name": "account",
          "type": "address"
        },
        {
          "internalType": "string",
          "name": "name",
          "type": "string"
        },
        {
          "internalType": "string",
          "name": "email",
          "type": "string"
        },
        {
          "internalType": "uint256",
          "name": "numSessionsPerformed",
          "type": "uint256"
        },
        {
          "internalType": "uint256",
          "name": "deviation",
          "type": "uint256"
        }
      ],
      "stateMutability": "view",
      "type": "function"
    },
    {
      "inputs": [],
      "name": "totalParticipants",
      "outputs": [
        {
          "internalType": "uint256",
          "name": "",
          "type": "uint256"
        }
      ],
      "stateMutability": "view",
      "type": "function"
    },
    {
      "inputs": [],
      "name": "totalSessions",
      "outputs": [
        {
          "internalType": "uint256",
          "name": "",
          "type": "uint256"
        }
      ],
      "stateMutability": "view",
      "type": "function"
    },
    {
      "inputs": [
        {
          "internalType": "address",
          "name": "session",
          "type": "address"
        }
      ],
      "name": "addSession",
      "outputs": [],
      "stateMutability": "nonpayable",
      "type": "function"
    },
    {
      "inputs": [
        {
          "internalType": "string",
          "name": "_name",
          "type": "string"
        },
        {
          "internalType": "string",
          "name": "_email",
          "type": "string"
        }
      ],
      "name": "enterParticipant",
      "outputs": [],
      "stateMutability": "nonpayable",
      "type": "function"
    },
    {
      "inputs": [
        {
          "internalType": "address",
          "name": "_account",
          "type": "address"
        },
        {
          "internalType": "string",
          "name": "_name",
          "type": "string"
        },
        {
          "internalType": "string",
          "name": "_email",
          "type": "string"
        },
        {
          "internalType": "uint256",
          "name": "_numSessionsPerformed",
          "type": "uint256"
        },
        {
          "internalType": "uint256",
          "name": "_deviation",
          "type": "uint256"
        }
      ],
      "name": "updateParticipantByAdmin",
      "outputs": [],
      "stateMutability": "nonpayable",
      "type": "function"
    },
    {
      "inputs": [
        {
          "internalType": "string",
          "name": "_name",
          "type": "string"
        },
        {
          "internalType": "string",
          "name": "_email",
          "type": "string"
        }
      ],
      "name": "updateParticipantByUser",
      "outputs": [],
      "stateMutability": "nonpayable",
      "type": "function"
    },
    {
      "inputs": [
        {
          "internalType": "address",
          "name": "_participantAddr",
          "type": "address"
        },
        {
          "internalType": "uint256",
          "name": "_newDeviation",
          "type": "uint256"
        }
      ],
      "name": "updateDeviation",
      "outputs": [],
      "stateMutability": "nonpayable",
      "type": "function"
    },
    {
      "inputs": [
        {
          "internalType": "address",
          "name": "_participant",
          "type": "address"
        }
      ],
      "name": "getAParticipant",
      "outputs": [
        {
          "internalType": "address",
          "name": "",
          "type": "address"
        },
        {
          "internalType": "string",
          "name": "",
          "type": "string"
        },
        {
          "internalType": "string",
          "name": "",
          "type": "string"
        },
        {
          "internalType": "uint256",
          "name": "",
          "type": "uint256"
        },
        {
          "internalType": "uint256",
          "name": "",
          "type": "uint256"
        }
      ],
      "stateMutability": "view",
      "type": "function"
    },
    {
      "inputs": [],
      "name": "getAdmin",
      "outputs": [
        {
          "internalType": "address",
          "name": "",
          "type": "address"
        }
      ],
      "stateMutability": "view",
      "type": "function"
    }
  ],
  "bytecode": "0x608060405234801561001057600080fd5b5033600260006101000a81548173ffffffffffffffffffffffffffffffffffffffff021916908373ffffffffffffffffffffffffffffffffffffffff1602179055506117d6806100616000396000f3fe608060405234801561001057600080fd5b50600436106100cf5760003560e01c80636f5db0b51161008c578063bbfa2d9b11610066578063bbfa2d9b1461022e578063d5c54bc41461024a578063f390dd8614610266578063f851a44014610282576100cf565b80636f5db0b5146101be5780638e1d11c5146101dc578063a26dbf2614610210576100cf565b8063100171c2146100d45780631f60614c14610108578063201b70e91461012457806332604459146101545780635118137d146101845780636e9960c3146101a0575b600080fd5b6100ee60048036038101906100e99190610e02565b6102a0565b6040516100ff959493929190610ee7565b60405180910390f35b610122600480360381019061011d919061107d565b610595565b005b61013e60048036038101906101399190611121565b6106a6565b60405161014b919061114e565b60405180910390f35b61016e60048036038101906101699190611121565b6106e5565b60405161017b919061114e565b60405180910390f35b61019e6004803603810190610199919061107d565b610724565b005b6101a8610821565b6040516101b5919061114e565b60405180910390f35b6101c661084b565b6040516101d39190611169565b60405180910390f35b6101f660048036038101906101f19190610e02565b610851565b604051610207959493929190610ee7565b60405180910390f35b6102186109b7565b6040516102259190611169565b60405180910390f35b61024860048036038101906102439190611184565b6109bd565b005b610264600480360381019061025f9190611237565b610b29565b005b610280600480360381019061027b9190610e02565b610c5c565b005b61028a610d6a565b604051610297919061114e565b60405180910390f35b6000606080600080600260009054906101000a900473ffffffffffffffffffffffffffffffffffffffff1673ffffffffffffffffffffffffffffffffffffffff163373ffffffffffffffffffffffffffffffffffffffff161461030257600080fd5b6000808773ffffffffffffffffffffffffffffffffffffffff1673ffffffffffffffffffffffffffffffffffffffff16815260200190815260200160002060000160009054906101000a900473ffffffffffffffffffffffffffffffffffffffff166000808873ffffffffffffffffffffffffffffffffffffffff1673ffffffffffffffffffffffffffffffffffffffff1681526020019081526020016000206001016000808973ffffffffffffffffffffffffffffffffffffffff1673ffffffffffffffffffffffffffffffffffffffff1681526020019081526020016000206002016000808a73ffffffffffffffffffffffffffffffffffffffff1673ffffffffffffffffffffffffffffffffffffffff168152602001908152602001600020600301546000808b73ffffffffffffffffffffffffffffffffffffffff1673ffffffffffffffffffffffffffffffffffffffff16815260200190815260200160002060040154838054610476906112a6565b80601f01602080910402602001604051908101604052809291908181526020018280546104a2906112a6565b80156104ef5780601f106104c4576101008083540402835291602001916104ef565b820191906000526020600020905b8154815290600101906020018083116104d257829003601f168201915b50505050509350828054610502906112a6565b80601f016020809104026020016040519081016040528092919081815260200182805461052e906112a6565b801561057b5780601f106105505761010080835404028352916020019161057b565b820191906000526020600020905b81548152906001019060200180831161055e57829003601f168201915b505050505092509450945094509450945091939590929450565b60008060003373ffffffffffffffffffffffffffffffffffffffff1673ffffffffffffffffffffffffffffffffffffffff1681526020019081526020016000209050338160000160006101000a81548173ffffffffffffffffffffffffffffffffffffffff021916908373ffffffffffffffffffffffffffffffffffffffff1602179055508281600101908161062b9190611483565b508181600201908161063d9190611483565b506001339080600181540180825580915050600190039060005260206000200160009091909190916101000a81548173ffffffffffffffffffffffffffffffffffffffff021916908373ffffffffffffffffffffffffffffffffffffffff160217905550505050565b600181815481106106b657600080fd5b906000526020600020016000915054906101000a900473ffffffffffffffffffffffffffffffffffffffff1681565b600381815481106106f557600080fd5b906000526020600020016000915054906101000a900473ffffffffffffffffffffffffffffffffffffffff1681565b60008060003373ffffffffffffffffffffffffffffffffffffffff1673ffffffffffffffffffffffffffffffffffffffff16815260200190815260200160002090503373ffffffffffffffffffffffffffffffffffffffff168160000160009054906101000a900473ffffffffffffffffffffffffffffffffffffffff1673ffffffffffffffffffffffffffffffffffffffff16146107f8576040517f08c379a00000000000000000000000000000000000000000000000000000000081526004016107ef906115c7565b60405180910390fd5b828160010190816108099190611483565b508181600201908161081b9190611483565b50505050565b6000600260009054906101000a900473ffffffffffffffffffffffffffffffffffffffff16905090565b60045481565b60006020528060005260406000206000915090508060000160009054906101000a900473ffffffffffffffffffffffffffffffffffffffff169080600101805461089a906112a6565b80601f01602080910402602001604051908101604052809291908181526020018280546108c6906112a6565b80156109135780601f106108e857610100808354040283529160200191610913565b820191906000526020600020905b8154815290600101906020018083116108f657829003601f168201915b505050505090806002018054610928906112a6565b80601f0160208091040260200160405190810160405280929190818152602001828054610954906112a6565b80156109a15780601f10610976576101008083540402835291602001916109a1565b820191906000526020600020905b81548152906001019060200180831161098457829003601f168201915b5050505050908060030154908060040154905085565b60055481565b600260009054906101000a900473ffffffffffffffffffffffffffffffffffffffff1673ffffffffffffffffffffffffffffffffffffffff163373ffffffffffffffffffffffffffffffffffffffff1614610a1757600080fd5b60008060008773ffffffffffffffffffffffffffffffffffffffff1673ffffffffffffffffffffffffffffffffffffffff16815260200190815260200160002090508573ffffffffffffffffffffffffffffffffffffffff168160000160009054906101000a900473ffffffffffffffffffffffffffffffffffffffff1673ffffffffffffffffffffffffffffffffffffffff1614610aeb576040517f08c379a0000000000000000000000000000000000000000000000000000000008152600401610ae2906115c7565b60405180910390fd5b84816001019081610afc9190611483565b5083816002019081610b0e9190611483565b50828160030181905550818160040181905550505050505050565b600260009054906101000a900473ffffffffffffffffffffffffffffffffffffffff1673ffffffffffffffffffffffffffffffffffffffff163273ffffffffffffffffffffffffffffffffffffffff1614610bb9576040517f08c379a0000000000000000000000000000000000000000000000000000000008152600401610bb090611633565b60405180910390fd5b60008060008473ffffffffffffffffffffffffffffffffffffffff1673ffffffffffffffffffffffffffffffffffffffff1681526020019081526020016000209050806003016000815480929190610c1090611682565b919050555060018160030154610c2691906116ca565b8282600301548360040154610c3b91906116fe565b610c4591906116ca565b610c4f919061176f565b8160040181905550505050565b600260009054906101000a900473ffffffffffffffffffffffffffffffffffffffff1673ffffffffffffffffffffffffffffffffffffffff163273ffffffffffffffffffffffffffffffffffffffff1614610cec576040517f08c379a0000000000000000000000000000000000000000000000000000000008152600401610ce390611633565b60405180910390fd5b6003819080600181540180825580915050600190039060005260206000200160009091909190916101000a81548173ffffffffffffffffffffffffffffffffffffffff021916908373ffffffffffffffffffffffffffffffffffffffff16021790555060046000815480929190610d6290611682565b919050555050565b600260009054906101000a900473ffffffffffffffffffffffffffffffffffffffff1681565b6000604051905090565b600080fd5b600080fd5b600073ffffffffffffffffffffffffffffffffffffffff82169050919050565b6000610dcf82610da4565b9050919050565b610ddf81610dc4565b8114610dea57600080fd5b50565b600081359050610dfc81610dd6565b92915050565b600060208284031215610e1857610e17610d9a565b5b6000610e2684828501610ded565b91505092915050565b610e3881610dc4565b82525050565b600081519050919050565b600082825260208201905092915050565b60005b83811015610e78578082015181840152602081019050610e5d565b60008484015250505050565b6000601f19601f8301169050919050565b6000610ea082610e3e565b610eaa8185610e49565b9350610eba818560208601610e5a565b610ec381610e84565b840191505092915050565b6000819050919050565b610ee181610ece565b82525050565b600060a082019050610efc6000830188610e2f565b8181036020830152610f0e8187610e95565b90508181036040830152610f228186610e95565b9050610f316060830185610ed8565b610f3e6080830184610ed8565b9695505050505050565b600080fd5b600080fd5b7f4e487b7100000000000000000000000000000000000000000000000000000000600052604160045260246000fd5b610f8a82610e84565b810181811067ffffffffffffffff82111715610fa957610fa8610f52565b5b80604052505050565b6000610fbc610d90565b9050610fc88282610f81565b919050565b600067ffffffffffffffff821115610fe857610fe7610f52565b5b610ff182610e84565b9050602081019050919050565b82818337600083830152505050565b600061102061101b84610fcd565b610fb2565b90508281526020810184848401111561103c5761103b610f4d565b5b611047848285610ffe565b509392505050565b600082601f83011261106457611063610f48565b5b813561107484826020860161100d565b91505092915050565b6000806040838503121561109457611093610d9a565b5b600083013567ffffffffffffffff8111156110b2576110b1610d9f565b5b6110be8582860161104f565b925050602083013567ffffffffffffffff8111156110df576110de610d9f565b5b6110eb8582860161104f565b9150509250929050565b6110fe81610ece565b811461110957600080fd5b50565b60008135905061111b816110f5565b92915050565b60006020828403121561113757611136610d9a565b5b60006111458482850161110c565b91505092915050565b60006020820190506111636000830184610e2f565b92915050565b600060208201905061117e6000830184610ed8565b92915050565b600080600080600060a086880312156111a05761119f610d9a565b5b60006111ae88828901610ded565b955050602086013567ffffffffffffffff8111156111cf576111ce610d9f565b5b6111db8882890161104f565b945050604086013567ffffffffffffffff8111156111fc576111fb610d9f565b5b6112088882890161104f565b93505060606112198882890161110c565b925050608061122a8882890161110c565b9150509295509295909350565b6000806040838503121561124e5761124d610d9a565b5b600061125c85828601610ded565b925050602061126d8582860161110c565b9150509250929050565b7f4e487b7100000000000000000000000000000000000000000000000000000000600052602260045260246000fd5b600060028204905060018216806112be57607f821691505b6020821081036112d1576112d0611277565b5b50919050565b60008190508160005260206000209050919050565b60006020601f8301049050919050565b600082821b905092915050565b6000600883026113397fffffffffffffffffffffffffffffffffffffffffffffffffffffffffffffffff826112fc565b61134386836112fc565b95508019841693508086168417925050509392505050565b6000819050919050565b600061138061137b61137684610ece565b61135b565b610ece565b9050919050565b6000819050919050565b61139a83611365565b6113ae6113a682611387565b848454611309565b825550505050565b600090565b6113c36113b6565b6113ce818484611391565b505050565b5b818110156113f2576113e76000826113bb565b6001810190506113d4565b5050565b601f82111561143757611408816112d7565b611411846112ec565b81016020851015611420578190505b61143461142c856112ec565b8301826113d3565b50505b505050565b600082821c905092915050565b600061145a6000198460080261143c565b1980831691505092915050565b60006114738383611449565b9150826002028217905092915050565b61148c82610e3e565b67ffffffffffffffff8111156114a5576114a4610f52565b5b6114af82546112a6565b6114ba8282856113f6565b600060209050601f8311600181146114ed57600084156114db578287015190505b6114e58582611467565b86555061154d565b601f1984166114fb866112d7565b60005b82811015611523578489015182556001820191506020850194506020810190506114fe565b86831015611540578489015161153c601f891682611449565b8355505b6001600288020188555050505b505050505050565b7f456e7465726564206163636f756e7420646f6573206e6f74206578697374212160008201527f2100000000000000000000000000000000000000000000000000000000000000602082015250565b60006115b1602183610e49565b91506115bc82611555565b604082019050919050565b600060208201905081810360008301526115e0816115a4565b9050919050565b7f4f6e6c792061646d696e2063616e2061646420612073657373696f6e21000000600082015250565b600061161d601d83610e49565b9150611628826115e7565b602082019050919050565b6000602082019050818103600083015261164c81611610565b9050919050565b7f4e487b7100000000000000000000000000000000000000000000000000000000600052601160045260246000fd5b600061168d82610ece565b91507fffffffffffffffffffffffffffffffffffffffffffffffffffffffffffffffff82036116bf576116be611653565b5b600182019050919050565b60006116d582610ece565b91506116e083610ece565b92508282019050808211156116f8576116f7611653565b5b92915050565b600061170982610ece565b915061171483610ece565b925082820261172281610ece565b9150828204841483151761173957611738611653565b5b5092915050565b7f4e487b7100000000000000000000000000000000000000000000000000000000600052601260045260246000fd5b600061177a82610ece565b915061178583610ece565b92508261179557611794611740565b5b82820490509291505056fea2646970667358221220613017a4af4abf8b57a4ae413cc8563df3a0f16dc4b2c133d956633349857b7e64736f6c63430008110033",
  "immutableReferences": {},
  "source": "// SPDX-License-Identifier: MIT\npragma solidity ^0.8.9;\nimport \"./Session.sol\";\n\ncontract Main is IMain{\n\n    // Structure to hold details of participants\n    struct IParticipant {\n        address account; // address of participiant\n        string name;     // name of participant\n        string email;    // email of participant\n        uint256 numSessionsPerformed; // number of sessionns that a participant performed\n        uint256 deviation;   // deviation of participant (%)\n    }\n    mapping(address => IParticipant) public participantDetails; //  Mapping to participant's information\n    address [] public participantAddr; // a list of address of all participants\n\n    address public admin; // address of administrator of the contract\n    address [] public deployedSessions; // a list of addresses of sessions deployed\n    uint256 public totalSessions; // number of sessions deployed\n    uint256 public totalParticipants; // number of participants\n\n    /**\n     * @dev admin varible will be assigned to the deployer of the main contract\n     */\n    constructor() {\n        admin = msg.sender;\n    }\n    /**\n     * @dev a modifier onlyAdmin is created for admin only\n     */\n    modifier onlyAdmin{\n        require(msg.sender == admin);\n        _;\n    }\n\n    /**\n     * @dev add a session contract address to main contract and Increase number of session deployed. \n     * @param session will be stored to the deployedSession array\n     */\n    function addSession(address session) public {\n        require(tx.origin == admin, \"Only admin can add a session!\");\n        deployedSessions.push(session);\n        totalSessions++; \n    }\n\n    /**\n     * @dev a user is able to enter the participant's information\n     * Requiremnts: Participant's name and participant's email\n     * User Information's update\n     */\n    function enterParticipant(string memory _name, string  memory _email) public{\n        IParticipant storage participant = participantDetails[msg.sender];\n        participant .account = msg.sender;\n        participant.name = _name;\n        participant.email = _email;\n        //totalParticipants++; // total of participants increase 1 when signup successful\n        participantAddr.push(msg.sender); // save participant address to a list\n    }\n    /**\n     * @dev update participants infomation -  admin role\n     */\n    function updateParticipantByAdmin(\n        address _account,\n        string memory _name,\n        string memory _email,\n        uint256 _numSessionsPerformed,\n        uint256 _deviation\n    ) public onlyAdmin{\n        IParticipant storage participant = participantDetails[_account];\n        require(participant.account == _account, \"Entered account does not exist!!!\");\n        participant.name = _name;\n        participant.email = _email;\n        participant.numSessionsPerformed = _numSessionsPerformed;\n        participant.deviation = _deviation;\n    }\n    /**\n     * @dev update participants infomation - user role\n     * requirememts: name and email\n     */\n     function updateParticipantByUser(string memory _name, string  memory _email) public{\n        IParticipant storage participant = participantDetails[msg.sender];\n        require(participant.account == msg.sender, \"Entered account does not exist!!!\");\n        participant.name = _name;\n        participant.email = _email;\n    }\n\n     /**\n     * @dev Update the deviation from the participant who has joined pricing sessions\n     */\n    function updateDeviation(address _participantAddr, uint256 _newDeviation) public{\n        require(tx.origin == admin, \"Only admin can add a session!\");\n        IParticipant storage participant = participantDetails[_participantAddr];\n        participant.numSessionsPerformed ++;\n        participant.deviation = (participant.deviation*participant.numSessionsPerformed + _newDeviation)\n        /(participant.numSessionsPerformed + 1);   \n    }\n\n    /**\n     * @dev admin allows to get participant information\n     * @param _participant address of participant as an input for the details\n     * including: account, name, email, number of session performed, deviation\n     */\n    function getAParticipant(address _participant) \n    public view onlyAdmin returns(address, string memory, string memory, uint256, uint256){\n        return(\n            participantDetails[_participant].account,\n            participantDetails[_participant].name,\n            participantDetails[_participant].email,\n            participantDetails[_participant].numSessionsPerformed,\n            participantDetails[_participant].deviation\n        );\n    }\n\n    /**\n     * @dev get admin address for the session contract\n     */\n    function getAdmin() public view returns(address){\n        return admin;\n    }\n    \n\n}\n",
  "sourcePath": "C:\\Users\\Hi Windows 11\\Desktop\\MyBaby\\Coin\\Blockchain_course_Funix\\PO5_Project\\Topic 1\\FunixPricingChain\\truffle\\contracts\\Main.sol",
  "compiler": {
    "name": "solc",
    "version": "0.8.17+commit.8df45f5f.Emscripten.clang"
  },
  "schemaVersion": "3.4.11",
  "updatedAt": "2023-01-27T16:50:41.809Z",
  "devdoc": {
    "kind": "dev",
    "methods": {
      "addSession(address)": {
        "details": "add a session contract address to main contract and Increase number of session deployed. ",
        "params": {
          "session": "will be stored to the deployedSession array"
        }
      },
      "constructor": {
        "details": "admin varible will be assigned to the deployer of the main contract"
      },
      "enterParticipant(string,string)": {
        "details": "a user is able to enter the participant's information Requiremnts: Participant's name and participant's email User Information's update"
      },
      "getAParticipant(address)": {
        "details": "admin allows to get participant information",
        "params": {
          "_participant": "address of participant as an input for the details including: account, name, email, number of session performed, deviation"
        }
      },
      "getAdmin()": {
        "details": "get admin address for the session contract"
      },
      "updateDeviation(address,uint256)": {
        "details": "Update the deviation from the participant who has joined pricing sessions"
      },
      "updateParticipantByAdmin(address,string,string,uint256,uint256)": {
        "details": "update participants infomation -  admin role"
      },
      "updateParticipantByUser(string,string)": {
        "details": "update participants infomation - user role requirememts: name and email"
      }
    },
    "version": 1
  },
  "userdoc": {
    "kind": "user",
    "methods": {},
    "version": 1
  }
}