{
  "contractName": "Session",
  "abi": [
    {
      "inputs": [
        {
          "internalType": "address",
          "name": "_mainContract",
          "type": "address"
        },
        {
          "internalType": "string",
          "name": "_productName",
          "type": "string"
        },
        {
          "internalType": "string",
          "name": "_productDescription",
          "type": "string"
        },
        {
          "internalType": "string[]",
          "name": "_productImages",
          "type": "string[]"
        }
      ],
      "stateMutability": "nonpayable",
      "type": "constructor"
    },
    {
      "inputs": [],
      "name": "admin",
      "outputs": [
        {
          "internalType": "address",
          "name": "",
          "type": "address"
        }
      ],
      "stateMutability": "view",
      "type": "function"
    },
    {
      "inputs": [],
      "name": "finalPrice",
      "outputs": [
        {
          "internalType": "uint256",
          "name": "",
          "type": "uint256"
        }
      ],
      "stateMutability": "view",
      "type": "function"
    },
    {
      "inputs": [],
      "name": "mainContract",
      "outputs": [
        {
          "internalType": "address",
          "name": "",
          "type": "address"
        }
      ],
      "stateMutability": "view",
      "type": "function"
    },
    {
      "inputs": [],
      "name": "participantCount",
      "outputs": [
        {
          "internalType": "uint8",
          "name": "",
          "type": "uint8"
        }
      ],
      "stateMutability": "view",
      "type": "function"
    },
    {
      "inputs": [],
      "name": "productDescription",
      "outputs": [
        {
          "internalType": "string",
          "name": "",
          "type": "string"
        }
      ],
      "stateMutability": "view",
      "type": "function"
    },
    {
      "inputs": [
        {
          "internalType": "uint256",
          "name": "",
          "type": "uint256"
        }
      ],
      "name": "productImages",
      "outputs": [
        {
          "internalType": "string",
          "name": "",
          "type": "string"
        }
      ],
      "stateMutability": "view",
      "type": "function"
    },
    {
      "inputs": [],
      "name": "productName",
      "outputs": [
        {
          "internalType": "string",
          "name": "",
          "type": "string"
        }
      ],
      "stateMutability": "view",
      "type": "function"
    },
    {
      "inputs": [],
      "name": "proposedPrice",
      "outputs": [
        {
          "internalType": "uint256",
          "name": "",
          "type": "uint256"
        }
      ],
      "stateMutability": "view",
      "type": "function"
    },
    {
      "inputs": [
        {
          "internalType": "uint256",
          "name": "",
          "type": "uint256"
        }
      ],
      "name": "sessionParticipants",
      "outputs": [
        {
          "internalType": "address",
          "name": "participantAddress",
          "type": "address"
        },
        {
          "internalType": "uint256",
          "name": "participantPrice",
          "type": "uint256"
        },
        {
          "internalType": "uint256",
          "name": "newDeviation",
          "type": "uint256"
        },
        {
          "internalType": "bool",
          "name": "registered",
          "type": "bool"
        },
        {
          "internalType": "bool",
          "name": "sessionJoined",
          "type": "bool"
        }
      ],
      "stateMutability": "view",
      "type": "function"
    },
    {
      "inputs": [
        {
          "internalType": "address",
          "name": "",
          "type": "address"
        }
      ],
      "name": "sessionParticipantsDetails",
      "outputs": [
        {
          "internalType": "address",
          "name": "participantAddress",
          "type": "address"
        },
        {
          "internalType": "uint256",
          "name": "participantPrice",
          "type": "uint256"
        },
        {
          "internalType": "uint256",
          "name": "newDeviation",
          "type": "uint256"
        },
        {
          "internalType": "bool",
          "name": "registered",
          "type": "bool"
        },
        {
          "internalType": "bool",
          "name": "sessionJoined",
          "type": "bool"
        }
      ],
      "stateMutability": "view",
      "type": "function"
    },
    {
      "inputs": [],
      "name": "state",
      "outputs": [
        {
          "internalType": "enum Session.State",
          "name": "",
          "type": "uint8"
        }
      ],
      "stateMutability": "view",
      "type": "function"
    },
    {
      "inputs": [
        {
          "internalType": "address",
          "name": "_participant",
          "type": "address"
        }
      ],
      "name": "register",
      "outputs": [],
      "stateMutability": "nonpayable",
      "type": "function"
    },
    {
      "inputs": [],
      "name": "startPricingSession",
      "outputs": [],
      "stateMutability": "nonpayable",
      "type": "function"
    },
    {
      "inputs": [
        {
          "internalType": "uint256",
          "name": "_price",
          "type": "uint256"
        }
      ],
      "name": "priceProduct",
      "outputs": [],
      "stateMutability": "nonpayable",
      "type": "function"
    },
    {
      "inputs": [],
      "name": "closePricingSession",
      "outputs": [],
      "stateMutability": "nonpayable",
      "type": "function"
    },
    {
      "inputs": [],
      "name": "calculateProposedPrice",
      "outputs": [],
      "stateMutability": "nonpayable",
      "type": "function"
    },
    {
      "inputs": [],
      "name": "calculateDeviation",
      "outputs": [],
      "stateMutability": "nonpayable",
      "type": "function"
    },
    {
      "inputs": [
        {
          "internalType": "uint256",
          "name": "index",
          "type": "uint256"
        }
      ],
      "name": "getSessionParticipant",
      "outputs": [
        {
          "internalType": "address",
          "name": "",
          "type": "address"
        },
        {
          "internalType": "uint256",
          "name": "",
          "type": "uint256"
        }
      ],
      "stateMutability": "view",
      "type": "function"
    },
    {
      "inputs": [],
      "name": "getProductInfo",
      "outputs": [
        {
          "internalType": "string",
          "name": "",
          "type": "string"
        },
        {
          "internalType": "string",
          "name": "",
          "type": "string"
        },
        {
          "internalType": "string[]",
          "name": "",
          "type": "string[]"
        }
      ],
      "stateMutability": "view",
      "type": "function"
    },
    {
      "inputs": [
        {
          "internalType": "string",
          "name": "_productName",
          "type": "string"
        },
        {
          "internalType": "string",
          "name": "_productDescription",
          "type": "string"
        },
        {
          "internalType": "string[]",
          "name": "_productImages",
          "type": "string[]"
        }
      ],
      "name": "updateProductInfo",
      "outputs": [],
      "stateMutability": "nonpayable",
      "type": "function"
    }
  ],
  "bytecode": "0x60806040526000603160006101000a81548160ff021916908360ff1602179055506000603160016101000a81548160ff02191690836004811115620000495762000048620003c9565b5b02179055503480156200005b57600080fd5b50604051620031c0380380620031c08339818101604052810190620000819190620006ec565b836000806101000a81548173ffffffffffffffffffffffffffffffffffffffff021916908373ffffffffffffffffffffffffffffffffffffffff16021790555083600160006101000a81548173ffffffffffffffffffffffffffffffffffffffff021916908373ffffffffffffffffffffffffffffffffffffffff160217905550600160009054906101000a900473ffffffffffffffffffffffffffffffffffffffff1673ffffffffffffffffffffffffffffffffffffffff16636e9960c36040518163ffffffff1660e01b8152600401602060405180830381865afa15801562000170573d6000803e3d6000fd5b505050506040513d601f19601f82011682018060405250810190620001969190620007bb565b600260006101000a81548173ffffffffffffffffffffffffffffffffffffffff021916908373ffffffffffffffffffffffffffffffffffffffff1602179055508260039081620001e7919062000a38565b508160049081620001f9919062000a38565b50806005908051906020019062000212929190620002dc565b506001603160016101000a81548160ff021916908360048111156200023c576200023b620003c9565b5b0217905550600160009054906101000a900473ffffffffffffffffffffffffffffffffffffffff1673ffffffffffffffffffffffffffffffffffffffff1663f390dd86306040518263ffffffff1660e01b81526004016200029e919062000b30565b600060405180830381600087803b158015620002b957600080fd5b505af1158015620002ce573d6000803e3d6000fd5b505050505050505062000b4d565b82805482825590600052602060002090810192821562000329579160200282015b828111156200032857825182908162000317919062000a38565b5091602001919060010190620002fd565b5b5090506200033891906200033c565b5090565b5b8082111562000360576000818162000356919062000364565b506001016200033d565b5090565b508054620003729062000827565b6000825580601f10620003865750620003a7565b601f016020900490600052602060002090810190620003a69190620003aa565b5b50565b5b80821115620003c5576000816000905550600101620003ab565b5090565b7f4e487b7100000000000000000000000000000000000000000000000000000000600052602160045260246000fd5b6000604051905090565b600080fd5b600080fd5b600073ffffffffffffffffffffffffffffffffffffffff82169050919050565b600062000439826200040c565b9050919050565b6200044b816200042c565b81146200045757600080fd5b50565b6000815190506200046b8162000440565b92915050565b600080fd5b600080fd5b6000601f19601f8301169050919050565b7f4e487b7100000000000000000000000000000000000000000000000000000000600052604160045260246000fd5b620004c6826200047b565b810181811067ffffffffffffffff82111715620004e857620004e76200048c565b5b80604052505050565b6000620004fd620003f8565b90506200050b8282620004bb565b919050565b600067ffffffffffffffff8211156200052e576200052d6200048c565b5b62000539826200047b565b9050602081019050919050565b60005b838110156200056657808201518184015260208101905062000549565b60008484015250505050565b600062000589620005838462000510565b620004f1565b905082815260208101848484011115620005a857620005a762000476565b5b620005b584828562000546565b509392505050565b600082601f830112620005d557620005d462000471565b5b8151620005e784826020860162000572565b91505092915050565b600067ffffffffffffffff8211156200060e576200060d6200048c565b5b602082029050602081019050919050565b600080fd5b60006200063b6200063584620005f0565b620004f1565b905080838252602082019050602084028301858111156200066157620006606200061f565b5b835b81811015620006af57805167ffffffffffffffff8111156200068a576200068962000471565b5b808601620006998982620005bd565b8552602085019450505060208101905062000663565b5050509392505050565b600082601f830112620006d157620006d062000471565b5b8151620006e384826020860162000624565b91505092915050565b6000806000806080858703121562000709576200070862000402565b5b600062000719878288016200045a565b945050602085015167ffffffffffffffff8111156200073d576200073c62000407565b5b6200074b87828801620005bd565b935050604085015167ffffffffffffffff8111156200076f576200076e62000407565b5b6200077d87828801620005bd565b925050606085015167ffffffffffffffff811115620007a157620007a062000407565b5b620007af87828801620006b9565b91505092959194509250565b600060208284031215620007d457620007d362000402565b5b6000620007e4848285016200045a565b91505092915050565b600081519050919050565b7f4e487b7100000000000000000000000000000000000000000000000000000000600052602260045260246000fd5b600060028204905060018216806200084057607f821691505b602082108103620008565762000855620007f8565b5b50919050565b60008190508160005260206000209050919050565b60006020601f8301049050919050565b600082821b905092915050565b600060088302620008c07fffffffffffffffffffffffffffffffffffffffffffffffffffffffffffffffff8262000881565b620008cc868362000881565b95508019841693508086168417925050509392505050565b6000819050919050565b6000819050919050565b600062000919620009136200090d84620008e4565b620008ee565b620008e4565b9050919050565b6000819050919050565b6200093583620008f8565b6200094d620009448262000920565b8484546200088e565b825550505050565b600090565b6200096462000955565b620009718184846200092a565b505050565b5b8181101562000999576200098d6000826200095a565b60018101905062000977565b5050565b601f821115620009e857620009b2816200085c565b620009bd8462000871565b81016020851015620009cd578190505b620009e5620009dc8562000871565b83018262000976565b50505b505050565b600082821c905092915050565b600062000a0d60001984600802620009ed565b1980831691505092915050565b600062000a288383620009fa565b9150826002028217905092915050565b62000a4382620007ed565b67ffffffffffffffff81111562000a5f5762000a5e6200048c565b5b62000a6b825462000827565b62000a788282856200099d565b600060209050601f83116001811462000ab0576000841562000a9b578287015190505b62000aa7858262000a1a565b86555062000b17565b601f19841662000ac0866200085c565b60005b8281101562000aea5784890151825560018201915060208501945060208101905062000ac3565b8683101562000b0a578489015162000b06601f891682620009fa565b8355505b6001600288020188555050505b505050505050565b62000b2a816200042c565b82525050565b600060208201905062000b47600083018462000b1f565b92915050565b6126638062000b5d6000396000f3fe608060405234801561001057600080fd5b506004361061012c5760003560e01c80639c3c2f7a116100ad578063e3635bfd11610071578063e3635bfd14610304578063efa492de14610322578063f212597e1461033e578063f851a44014610348578063fc72a385146103665761012c565b80639c3c2f7a14610296578063a6b513ee146102a0578063a9293a84146102be578063c19d93fb146102c8578063d270e7ab146102e65761012c565b8063705c1a11116100f4578063705c1a11146101eb5780637f7650eb1461021f5780638a30f8cc1461023d5780639212ef121461025b57806396586a19146102655761012c565b80633236116d1461013157806335c9b7bc14610161578063362f04c01461017d57806337dda87e1461019b5780634420e486146101cf575b600080fd5b61014b6004803603810190610146919061181c565b610386565b60405161015891906118d9565b60405180910390f35b61017b60048036038101906101769190611b16565b610432565b005b61018561050a565b6040516101929190611bd9565b60405180910390f35b6101b560048036038101906101b09190611c52565b61051d565b6040516101c6959493929190611cb8565b60405180910390f35b6101e960048036038101906101e49190611c52565b61058d565b005b6102056004803603810190610200919061181c565b610994565b604051610216959493929190611cb8565b60405180910390f35b610227610a0a565b60405161023491906118d9565b60405180910390f35b610245610a98565b60405161025291906118d9565b60405180910390f35b610263610b26565b005b61027f600480360381019061027a919061181c565b610bef565b60405161028d929190611d0b565b60405180910390f35b61029e610c53565b005b6102a8610d1c565b6040516102b59190611d34565b60405180910390f35b6102c6610d22565b005b6102d061105a565b6040516102dd9190611dc6565b60405180910390f35b6102ee61106d565b6040516102fb9190611de1565b60405180910390f35b61030c611091565b6040516103199190611d34565b60405180910390f35b61033c6004803603810190610337919061181c565b611097565b005b6103466112a4565b005b6103506114d1565b60405161035d9190611de1565b60405180910390f35b61036e6114f7565b60405161037d93929190611f08565b60405180910390f35b6005818154811061039657600080fd5b9060005260206000200160009150905080546103b190611f83565b80601f01602080910402602001604051908101604052809291908181526020018280546103dd90611f83565b801561042a5780601f106103ff5761010080835404028352916020019161042a565b820191906000526020600020905b81548152906001019060200180831161040d57829003601f168201915b505050505081565b600260009054906101000a900473ffffffffffffffffffffffffffffffffffffffff1673ffffffffffffffffffffffffffffffffffffffff163373ffffffffffffffffffffffffffffffffffffffff161461048c57600080fd5b60018060048111156104a1576104a0611d4f565b5b603160019054906101000a900460ff1660048111156104c3576104c2611d4f565b5b146104cd57600080fd5b83600390816104dc9190612160565b5082600490816104ec9190612160565b5081600590805190602001906105039291906116f8565b5050505050565b603160009054906101000a900460ff1681565b60086020528060005260406000206000915090508060000160009054906101000a900473ffffffffffffffffffffffffffffffffffffffff16908060010154908060020154908060030160009054906101000a900460ff16908060030160019054906101000a900460ff16905085565b600260009054906101000a900473ffffffffffffffffffffffffffffffffffffffff1673ffffffffffffffffffffffffffffffffffffffff163373ffffffffffffffffffffffffffffffffffffffff16146105e757600080fd5b60018060048111156105fc576105fb611d4f565b5b603160019054906101000a900460ff16600481111561061e5761061d611d4f565b5b1461062857600080fd5b600015156009603160009054906101000a900460ff1660ff16600a811061065257610651612232565b5b6004020160030160009054906101000a900460ff161515146106a9576040517f08c379a00000000000000000000000000000000000000000000000000000000081526004016106a0906122ad565b60405180910390fd5b600073ffffffffffffffffffffffffffffffffffffffff166009603160009054906101000a900460ff1660ff16600a81106106e7576106e6612232565b5b6004020160000160009054906101000a900473ffffffffffffffffffffffffffffffffffffffff1673ffffffffffffffffffffffffffffffffffffffff1603610765576040517f08c379a000000000000000000000000000000000000000000000000000000000815260040161075c90612319565b60405180910390fd5b816009603160009054906101000a900460ff1660ff16600a811061078c5761078b612232565b5b6004020160000160006101000a81548173ffffffffffffffffffffffffffffffffffffffff021916908373ffffffffffffffffffffffffffffffffffffffff16021790555060016009603160009054906101000a900460ff1660ff16600a81106107f9576107f8612232565b5b6004020160030160006101000a81548160ff0219169083151502179055506009603160009054906101000a900460ff1660ff16600a811061083d5761083c612232565b5b60040201600860008473ffffffffffffffffffffffffffffffffffffffff1673ffffffffffffffffffffffffffffffffffffffff1681526020019081526020016000206000820160009054906101000a900473ffffffffffffffffffffffffffffffffffffffff168160000160006101000a81548173ffffffffffffffffffffffffffffffffffffffff021916908373ffffffffffffffffffffffffffffffffffffffff16021790555060018201548160010155600282015481600201556003820160009054906101000a900460ff168160030160006101000a81548160ff0219169083151502179055506003820160019054906101000a900460ff168160030160016101000a81548160ff0219169083151502179055509050506031600081819054906101000a900460ff168092919061097790612368565b91906101000a81548160ff021916908360ff160217905550505050565b600981600a81106109a457600080fd5b600402016000915090508060000160009054906101000a900473ffffffffffffffffffffffffffffffffffffffff16908060010154908060020154908060030160009054906101000a900460ff16908060030160019054906101000a900460ff16905085565b60038054610a1790611f83565b80601f0160208091040260200160405190810160405280929190818152602001828054610a4390611f83565b8015610a905780601f10610a6557610100808354040283529160200191610a90565b820191906000526020600020905b815481529060010190602001808311610a7357829003601f168201915b505050505081565b60048054610aa590611f83565b80601f0160208091040260200160405190810160405280929190818152602001828054610ad190611f83565b8015610b1e5780601f10610af357610100808354040283529160200191610b1e565b820191906000526020600020905b815481529060010190602001808311610b0157829003601f168201915b505050505081565b600260009054906101000a900473ffffffffffffffffffffffffffffffffffffffff1673ffffffffffffffffffffffffffffffffffffffff163373ffffffffffffffffffffffffffffffffffffffff1614610b8057600080fd5b6002806004811115610b9557610b94611d4f565b5b603160019054906101000a900460ff166004811115610bb757610bb6611d4f565b5b14610bc157600080fd5b6003603160016101000a81548160ff02191690836004811115610be757610be6611d4f565b5b021790555050565b600080600983600a8110610c0657610c05612232565b5b6004020160000160009054906101000a900473ffffffffffffffffffffffffffffffffffffffff16600984600a8110610c4257610c41612232565b5b600402016001015491509150915091565b600260009054906101000a900473ffffffffffffffffffffffffffffffffffffffff1673ffffffffffffffffffffffffffffffffffffffff163373ffffffffffffffffffffffffffffffffffffffff1614610cad57600080fd5b6001806004811115610cc257610cc1611d4f565b5b603160019054906101000a900460ff166004811115610ce457610ce3611d4f565b5b14610cee57600080fd5b6002603160016101000a81548160ff02191690836004811115610d1457610d13611d4f565b5b021790555050565b60075481565b600260009054906101000a900473ffffffffffffffffffffffffffffffffffffffff1673ffffffffffffffffffffffffffffffffffffffff163373ffffffffffffffffffffffffffffffffffffffff1614610d7c57600080fd5b6004806004811115610d9157610d90611d4f565b5b603160019054906101000a900460ff166004811115610db357610db2611d4f565b5b14610dbd57600080fd5b60065460078190555060005b603160009054906101000a900460ff1660ff16811015610f1157600981600a8110610df757610df6612232565b5b6004020160030160019054906101000a900460ff1615610efe57600981600a8110610e2557610e24612232565b5b600402016001015460075410610e9b57600754600982600a8110610e4c57610e4b612232565b5b6004020160010154600754610e619190612391565b6064610e6d91906123c5565b610e779190612436565b600982600a8110610e8b57610e8a612232565b5b6004020160020181905550610efd565b600754600754600983600a8110610eb557610eb4612232565b5b6004020160010154610ec79190612391565b6064610ed391906123c5565b610edd9190612436565b600982600a8110610ef157610ef0612232565b5b60040201600201819055505b5b8080610f0990612467565b915050610dc9565b5060005b603160009054906101000a900460ff1660ff1681101561105657600981600a8110610f4357610f42612232565b5b6004020160030160019054906101000a900460ff161561104357600160009054906101000a900473ffffffffffffffffffffffffffffffffffffffff1673ffffffffffffffffffffffffffffffffffffffff1663d5c54bc4600983600a8110610faf57610fae612232565b5b6004020160000160009054906101000a900473ffffffffffffffffffffffffffffffffffffffff16600984600a8110610feb57610fea612232565b5b60040201600201546040518363ffffffff1660e01b8152600401611010929190611d0b565b600060405180830381600087803b15801561102a57600080fd5b505af115801561103e573d6000803e3d6000fd5b505050505b808061104e90612467565b915050610f15565b5050565b603160019054906101000a900460ff1681565b60008054906101000a900473ffffffffffffffffffffffffffffffffffffffff1681565b60065481565b60028060048111156110ac576110ab611d4f565b5b603160019054906101000a900460ff1660048111156110ce576110cd611d4f565b5b146110d857600080fd5b600260009054906101000a900473ffffffffffffffffffffffffffffffffffffffff1673ffffffffffffffffffffffffffffffffffffffff163373ffffffffffffffffffffffffffffffffffffffff1603611168576040517f08c379a000000000000000000000000000000000000000000000000000000000815260040161115f90612521565b60405180910390fd5b60011515600860003373ffffffffffffffffffffffffffffffffffffffff1673ffffffffffffffffffffffffffffffffffffffff16815260200190815260200160002060030160009054906101000a900460ff161515146111fe576040517f08c379a00000000000000000000000000000000000000000000000000000000081526004016111f5906125d9565b60405180910390fd5b81600860003373ffffffffffffffffffffffffffffffffffffffff1673ffffffffffffffffffffffffffffffffffffffff168152602001908152602001600020600101819055506001600860003373ffffffffffffffffffffffffffffffffffffffff1673ffffffffffffffffffffffffffffffffffffffff16815260200190815260200160002060030160016101000a81548160ff0219169083151502179055505050565b600260009054906101000a900473ffffffffffffffffffffffffffffffffffffffff1673ffffffffffffffffffffffffffffffffffffffff163373ffffffffffffffffffffffffffffffffffffffff16146112fe57600080fd5b600380600481111561131357611312611d4f565b5b603160019054906101000a900460ff16600481111561133557611334611d4f565b5b1461133f57600080fd5b60008060008060005b603160009054906101000a900460ff1660ff1681101561145357600981600a811061137657611375612232565b5b6004020160030160019054906101000a900460ff161561144057600981600a81106113a4576113a3612232565b5b6004020160010154846113b791906125f9565b9350600981600a81106113cd576113cc612232565b5b6004020160020154856113e091906125f9565b9450600981600a81106113f6576113f5612232565b5b6004020160020154600982600a811061141257611411612232565b5b600402016001015461142491906123c5565b8361142f91906125f9565b9250818061143c90612467565b9250505b808061144b90612467565b915050611348565b508381606461146291906123c5565b61146c9190612391565b848461147891906123c5565b84606461148591906123c5565b61148f9190612391565b6114999190612436565b6006819055506004603160016101000a81548160ff021916908360048111156114c5576114c4611d4f565b5b02179055505050505050565b600260009054906101000a900473ffffffffffffffffffffffffffffffffffffffff1681565b606080606060036004600582805461150e90611f83565b80601f016020809104026020016040519081016040528092919081815260200182805461153a90611f83565b80156115875780601f1061155c57610100808354040283529160200191611587565b820191906000526020600020905b81548152906001019060200180831161156a57829003601f168201915b5050505050925081805461159a90611f83565b80601f01602080910402602001604051908101604052809291908181526020018280546115c690611f83565b80156116135780601f106115e857610100808354040283529160200191611613565b820191906000526020600020905b8154815290600101906020018083116115f657829003601f168201915b5050505050915080805480602002602001604051908101604052809291908181526020016000905b828210156116e757838290600052602060002001805461165a90611f83565b80601f016020809104026020016040519081016040528092919081815260200182805461168690611f83565b80156116d35780601f106116a8576101008083540402835291602001916116d3565b820191906000526020600020905b8154815290600101906020018083116116b657829003601f168201915b50505050508152602001906001019061163b565b505050509050925092509250909192565b828054828255906000526020600020908101928215611740579160200282015b8281111561173f57825182908161172f9190612160565b5091602001919060010190611718565b5b50905061174d9190611751565b5090565b5b8082111561177157600081816117689190611775565b50600101611752565b5090565b50805461178190611f83565b6000825580601f1061179357506117b2565b601f0160209004906000526020600020908101906117b191906117b5565b5b50565b5b808211156117ce5760008160009055506001016117b6565b5090565b6000604051905090565b600080fd5b600080fd5b6000819050919050565b6117f9816117e6565b811461180457600080fd5b50565b600081359050611816816117f0565b92915050565b600060208284031215611832576118316117dc565b5b600061184084828501611807565b91505092915050565b600081519050919050565b600082825260208201905092915050565b60005b83811015611883578082015181840152602081019050611868565b60008484015250505050565b6000601f19601f8301169050919050565b60006118ab82611849565b6118b58185611854565b93506118c5818560208601611865565b6118ce8161188f565b840191505092915050565b600060208201905081810360008301526118f381846118a0565b905092915050565b600080fd5b600080fd5b7f4e487b7100000000000000000000000000000000000000000000000000000000600052604160045260246000fd5b61193d8261188f565b810181811067ffffffffffffffff8211171561195c5761195b611905565b5b80604052505050565b600061196f6117d2565b905061197b8282611934565b919050565b600067ffffffffffffffff82111561199b5761199a611905565b5b6119a48261188f565b9050602081019050919050565b82818337600083830152505050565b60006119d36119ce84611980565b611965565b9050828152602081018484840111156119ef576119ee611900565b5b6119fa8482856119b1565b509392505050565b600082601f830112611a1757611a166118fb565b5b8135611a278482602086016119c0565b91505092915050565b600067ffffffffffffffff821115611a4b57611a4a611905565b5b602082029050602081019050919050565b600080fd5b6000611a74611a6f84611a30565b611965565b90508083825260208201905060208402830185811115611a9757611a96611a5c565b5b835b81811015611ade57803567ffffffffffffffff811115611abc57611abb6118fb565b5b808601611ac98982611a02565b85526020850194505050602081019050611a99565b5050509392505050565b600082601f830112611afd57611afc6118fb565b5b8135611b0d848260208601611a61565b91505092915050565b600080600060608486031215611b2f57611b2e6117dc565b5b600084013567ffffffffffffffff811115611b4d57611b4c6117e1565b5b611b5986828701611a02565b935050602084013567ffffffffffffffff811115611b7a57611b796117e1565b5b611b8686828701611a02565b925050604084013567ffffffffffffffff811115611ba757611ba66117e1565b5b611bb386828701611ae8565b9150509250925092565b600060ff82169050919050565b611bd381611bbd565b82525050565b6000602082019050611bee6000830184611bca565b92915050565b600073ffffffffffffffffffffffffffffffffffffffff82169050919050565b6000611c1f82611bf4565b9050919050565b611c2f81611c14565b8114611c3a57600080fd5b50565b600081359050611c4c81611c26565b92915050565b600060208284031215611c6857611c676117dc565b5b6000611c7684828501611c3d565b91505092915050565b611c8881611c14565b82525050565b611c97816117e6565b82525050565b60008115159050919050565b611cb281611c9d565b82525050565b600060a082019050611ccd6000830188611c7f565b611cda6020830187611c8e565b611ce76040830186611c8e565b611cf46060830185611ca9565b611d016080830184611ca9565b9695505050505050565b6000604082019050611d206000830185611c7f565b611d2d6020830184611c8e565b9392505050565b6000602082019050611d496000830184611c8e565b92915050565b7f4e487b7100000000000000000000000000000000000000000000000000000000600052602160045260246000fd5b60058110611d8f57611d8e611d4f565b5b50565b6000819050611da082611d7e565b919050565b6000611db082611d92565b9050919050565b611dc081611da5565b82525050565b6000602082019050611ddb6000830184611db7565b92915050565b6000602082019050611df66000830184611c7f565b92915050565b600081519050919050565b600082825260208201905092915050565b6000819050602082019050919050565b600082825260208201905092915050565b6000611e4482611849565b611e4e8185611e28565b9350611e5e818560208601611865565b611e678161188f565b840191505092915050565b6000611e7e8383611e39565b905092915050565b6000602082019050919050565b6000611e9e82611dfc565b611ea88185611e07565b935083602082028501611eba85611e18565b8060005b85811015611ef65784840389528151611ed78582611e72565b9450611ee283611e86565b925060208a01995050600181019050611ebe565b50829750879550505050505092915050565b60006060820190508181036000830152611f2281866118a0565b90508181036020830152611f3681856118a0565b90508181036040830152611f4a8184611e93565b9050949350505050565b7f4e487b7100000000000000000000000000000000000000000000000000000000600052602260045260246000fd5b60006002820490506001821680611f9b57607f821691505b602082108103611fae57611fad611f54565b5b50919050565b60008190508160005260206000209050919050565b60006020601f8301049050919050565b600082821b905092915050565b6000600883026120167fffffffffffffffffffffffffffffffffffffffffffffffffffffffffffffffff82611fd9565b6120208683611fd9565b95508019841693508086168417925050509392505050565b6000819050919050565b600061205d612058612053846117e6565b612038565b6117e6565b9050919050565b6000819050919050565b61207783612042565b61208b61208382612064565b848454611fe6565b825550505050565b600090565b6120a0612093565b6120ab81848461206e565b505050565b5b818110156120cf576120c4600082612098565b6001810190506120b1565b5050565b601f821115612114576120e581611fb4565b6120ee84611fc9565b810160208510156120fd578190505b61211161210985611fc9565b8301826120b0565b50505b505050565b600082821c905092915050565b600061213760001984600802612119565b1980831691505092915050565b60006121508383612126565b9150826002028217905092915050565b61216982611849565b67ffffffffffffffff81111561218257612181611905565b5b61218c8254611f83565b6121978282856120d3565b600060209050601f8311600181146121ca57600084156121b8578287015190505b6121c28582612144565b86555061222a565b601f1984166121d886611fb4565b60005b82811015612200578489015182556001820191506020850194506020810190506121db565b8683101561221d5784890151612219601f891682612126565b8355505b6001600288020188555050505b505050505050565b7f4e487b7100000000000000000000000000000000000000000000000000000000600052603260045260246000fd5b7f4163636f756e7420686173206265656e20726567697374657265642100000000600082015250565b6000612297601c83611854565b91506122a282612261565b602082019050919050565b600060208201905081810360008301526122c68161228a565b9050919050565b7f5a65726f206163636f756e742100000000000000000000000000000000000000600082015250565b6000612303600d83611854565b915061230e826122cd565b602082019050919050565b60006020820190508181036000830152612332816122f6565b9050919050565b7f4e487b7100000000000000000000000000000000000000000000000000000000600052601160045260246000fd5b600061237382611bbd565b915060ff820361238657612385612339565b5b600182019050919050565b600061239c826117e6565b91506123a7836117e6565b92508282039050818111156123bf576123be612339565b5b92915050565b60006123d0826117e6565b91506123db836117e6565b92508282026123e9816117e6565b91508282048414831517612400576123ff612339565b5b5092915050565b7f4e487b7100000000000000000000000000000000000000000000000000000000600052601260045260246000fd5b6000612441826117e6565b915061244c836117e6565b92508261245c5761245b612407565b5b828204905092915050565b6000612472826117e6565b91507fffffffffffffffffffffffffffffffffffffffffffffffffffffffffffffffff82036124a4576124a3612339565b5b600182019050919050565b7f41646d696e2073686f756c64206e6f74206a6f696e20746f207072696365206160008201527f2070726f64756374000000000000000000000000000000000000000000000000602082015250565b600061250b602883611854565b9150612516826124af565b604082019050919050565b6000602082019050818103600083015261253a816124fe565b9050919050565b7f4f6e6c7920746865207061727469636970616e74732077686f2072656769737460008201527f657265642062792061646d696e2063616e20707269636520612070726f64756360208201527f7421000000000000000000000000000000000000000000000000000000000000604082015250565b60006125c3604283611854565b91506125ce82612541565b606082019050919050565b600060208201905081810360008301526125f2816125b6565b9050919050565b6000612604826117e6565b915061260f836117e6565b925082820190508082111561262757612626612339565b5b9291505056fea2646970667358221220ed2f0d975952e3efa1debfba63b752586f5a60e36c43934fd36e34156c0ad15364736f6c63430008110033",
  "immutableReferences": {},
  "source": "// SPDX-License-Identifier: MIT\npragma solidity ^0.8.9;\n\n// Interface of Main contract to call from Session contract\ninterface IMain {\n    function addSession(address session) external;\n    function enterParticipant(string memory _name, string  memory _email) external;\n    function updateParticipantByAdmin(\n        address _account,\n        string memory _name,\n        string memory _email,\n        uint256 _numSessionsPerformed,\n        uint256 _deviation\n    ) external;\n    function updateParticipantByUser(string memory _name, string  memory _email) external;\n    function updateDeviation(address _participantAddr, uint256 _newDeviation) external;\n    function getAParticipant(address _participant) \n    external view returns(address, string memory, string memory, uint256, uint256);\n    function getAdmin() external view returns(address);\n\n}\n\ncontract Session {\n    /**\n     * Main contract address to add to a new session \n     * An instance from main contract\n     */\n    address public mainContract;\n    IMain MainContract;\n    address public admin; // to save an admin address from the main contract\n\n    string public productName; // Product name\n    string public productDescription; // Product description\n    string [] public productImages; // A list of string, each presents as a specific image.\n\n    uint256 public proposedPrice; // the price is proposed based on all given price and their's deviation\n    uint256 public finalPrice; // when the session is ended, the final price is up to date\n\n    // struct of participants who joined to the pricing session \n    struct IsessionParticipant{\n        address participantAddress; // address of participant who joined to the session\n        uint256 participantPrice;   // a given price from a participant\n        uint256 newDeviation;          // deviation of a participant\n        bool registered;                // a status of the participants registered or not\n        bool sessionJoined;          // a status of the participant who joined to price a product\n    }\n    mapping(address => IsessionParticipant) public sessionParticipantsDetails;\n    IsessionParticipant [10] public sessionParticipants; // a list of participants of the session\n    \n    uint8 public participantCount = 0; // counter of participants \n\n    // State of the pricing session \n    enum State {INITIATED, CREATED, STARTED, CLOSING, CLOSED}\n    State public state = State.INITIATED; // Initiated state for a session\n    \n    constructor(\n        address _mainContract,\n        string memory _productName,\n        string memory _productDescription,\n        string [] memory _productImages\n    ){\n        // Get Main Contract instance\n        mainContract = _mainContract;\n        MainContract = IMain(_mainContract);\n\n        // admin address from main contract\n        admin = MainContract.getAdmin();\n        \n        // Init Session contract with the product information\n        productName = _productName;\n        productDescription = _productDescription;\n        productImages = _productImages;\n        // state of the session change to CREATED\n        state = State.CREATED;\n        \n        // Call Main Contract function to link current contract.\n        MainContract.addSession(address(this));\n    }\n    /**\n     * @dev a modifier to check the current state of a session \n     */\n    modifier stateCheck(State currentState){\n        require(state == currentState);\n        _;\n    }\n    /**\n     * @dev a modifier: Admin only\n     */\n    modifier onlyAdmin{\n        require(msg.sender == admin);\n        _;\n    }\n    // TODO: Functions\n    /**\n     * @dev register participants to join a pricing session\n     * Participants are less than 10 people\n     */\n    function register(address _participant) public onlyAdmin stateCheck(State.CREATED){\n        require(\n            sessionParticipants[participantCount].registered == false,\n            \"Account has been registered!\" \n        );\n        require(\n            sessionParticipants[participantCount].participantAddress != address(0),\n            \"Zero account!\" \n        );\n        sessionParticipants[participantCount].participantAddress = _participant;\n        sessionParticipants[participantCount].registered = true;\n        sessionParticipantsDetails[_participant] = sessionParticipants[participantCount];\n        participantCount++;\n\n    }\n\n    /**\n     * @dev Only Admin can be able to start a pricing session\n     */\n    function startPricingSession() public onlyAdmin stateCheck(State.CREATED){\n        // the state allows participants start to price\n        state = State.STARTED; \n\n    }\n    /**\n     * @dev participants are able to start to price a product\n     * @param _price is a given price that a participant prices\n     * The participants can price a product many time during the session started. \n     */\n    function priceProduct(uint256 _price) public stateCheck(State.STARTED){\n        require(msg.sender != admin,\"Admin should not join to price a product\");\n        require(\n            sessionParticipantsDetails[msg.sender].registered == true, \n            \"Only the participants who registered by admin can price a product!\" \n        );\n        sessionParticipantsDetails[msg.sender].participantPrice = _price;\n        sessionParticipantsDetails[msg.sender].sessionJoined = true;\n    }\n    /**\n     * @dev close a pricing session by admin \n     * Update the state of the pricing session \n     */\n    function closePricingSession() public onlyAdmin stateCheck(State.STARTED){\n        state = State.CLOSING;\n    }\n\n\n    /**\n     * @dev calculate the proposed price for the session\n     * change the state from CLOSING TO CLOSED for calculating\n     */\n    function calculateProposedPrice() public onlyAdmin stateCheck(State.CLOSING){\n        uint256 totalDeviation;\n        uint256 totalPrice;\n        uint256 totalMultiple;\n        uint256 totalParticipant;\n        for(uint i =0; i < participantCount; i++){\n            if(sessionParticipants[i].sessionJoined){\n                totalPrice += sessionParticipants[i].participantPrice;\n                totalDeviation += sessionParticipants[i].newDeviation;\n                totalMultiple += sessionParticipants[i].participantPrice*sessionParticipants[i].newDeviation;\n                totalParticipant++;\n            }\n        }\n        proposedPrice = (100*totalPrice -totalPrice* totalDeviation)/(100*totalParticipant - totalDeviation);\n        state = State.CLOSED; // state is closed when finishing the proposed price calculated\n    }\n    \n    /**\n     * @dev calculate the deviation of a participant based on final price and proposed price\n     * Update proposed price to final price\n     */\n    function calculateDeviation() public onlyAdmin stateCheck(State.CLOSED){\n        finalPrice = proposedPrice; // update final price\n        for(uint i =0; i < participantCount; i++){\n            if(sessionParticipants[i].sessionJoined){\n                if(finalPrice >= sessionParticipants[i].participantPrice){\n                    sessionParticipants[i].newDeviation = 100*(finalPrice - sessionParticipants[i].participantPrice)/finalPrice;\n                }else{\n                    sessionParticipants[i].newDeviation = 100*(sessionParticipants[i].participantPrice - finalPrice)/finalPrice;\n                }\n            }\n        }\n        // Update deviation to the main contract\n        for(uint i =0; i < participantCount; i++){\n            if(sessionParticipants[i].sessionJoined){\n                MainContract.updateDeviation(\n                    sessionParticipants[i].participantAddress,\n                    sessionParticipants[i].newDeviation\n                );\n            }\n        }\n    }\n    \n    /**\n      * @dev get Participant information from the pricing session\n      * @param index to check a specific partipant has priced\n      */\n    function getSessionParticipant(uint index) public view returns(address, uint256 ){\n        return(\n            sessionParticipants[index].participantAddress,\n            sessionParticipants[index].participantPrice\n        );\n    }\n\n    /**\n     * @dev get the product information\n     */\n    function getProductInfo() public view returns(string memory, string memory, string[] memory){\n        return(\n            productName,\n            productDescription,\n            productImages\n        );\n    }\n\n    /**\n     * @dev Update production information before the session begins\n     * @param _productName: change the product name if any\n     * @param _productDescription: change the product description if any\n     * @param _productImages Change the list of images if any\n     */\n    function updateProductInfo(\n        string memory _productName,\n        string memory _productDescription,\n        string [] memory _productImages\n    ) public onlyAdmin stateCheck(State.CREATED){\n        productName = _productName;\n        productDescription = _productDescription;\n        productImages = _productImages;\n    }\n\n    \n \n    \n\n\n}\n",
  "sourcePath": "C:\\Users\\Hi Windows 11\\Desktop\\MyBaby\\Coin\\Blockchain_course_Funix\\PO5_Project\\Topic 1\\FunixPricingChain\\truffle\\contracts\\Session.sol",
  "compiler": {
    "name": "solc",
    "version": "0.8.17+commit.8df45f5f.Emscripten.clang"
  },
  "schemaVersion": "3.4.11",
  "updatedAt": "2023-01-27T16:50:41.827Z",
  "devdoc": {
    "kind": "dev",
    "methods": {
      "calculateDeviation()": {
        "details": "calculate the deviation of a participant based on final price and proposed price Update proposed price to final price"
      },
      "calculateProposedPrice()": {
        "details": "calculate the proposed price for the session change the state from CLOSING TO CLOSED for calculating"
      },
      "closePricingSession()": {
        "details": "close a pricing session by admin  Update the state of the pricing session "
      },
      "getProductInfo()": {
        "details": "get the product information"
      },
      "getSessionParticipant(uint256)": {
        "details": "get Participant information from the pricing session",
        "params": {
          "index": "to check a specific partipant has priced"
        }
      },
      "priceProduct(uint256)": {
        "details": "participants are able to start to price a product",
        "params": {
          "_price": "is a given price that a participant prices The participants can price a product many time during the session started. "
        }
      },
      "register(address)": {
        "details": "register participants to join a pricing session Participants are less than 10 people"
      },
      "startPricingSession()": {
        "details": "Only Admin can be able to start a pricing session"
      },
      "updateProductInfo(string,string,string[])": {
        "details": "Update production information before the session begins",
        "params": {
          "_productDescription": ": change the product description if any",
          "_productImages": "Change the list of images if any",
          "_productName": ": change the product name if any"
        }
      }
    },
    "version": 1
  },
  "userdoc": {
    "kind": "user",
    "methods": {
      "mainContract()": {
        "notice": "Main contract address to add to a new session  An instance from main contract"
      }
    },
    "version": 1
  }
}