{
  "contractName": "Main",
  "abi": [
    {
      "inputs": [],
      "stateMutability": "nonpayable",
      "type": "constructor"
    },
    {
      "inputs": [],
      "name": "admin",
      "outputs": [
        {
          "internalType": "address",
          "name": "",
          "type": "address"
        }
      ],
      "stateMutability": "view",
      "type": "function",
      "constant": true
    },
    {
      "inputs": [
        {
          "internalType": "uint256",
          "name": "",
          "type": "uint256"
        }
      ],
      "name": "deployedSessions",
      "outputs": [
        {
          "internalType": "address",
          "name": "",
          "type": "address"
        }
      ],
      "stateMutability": "view",
      "type": "function",
      "constant": true
    },
    {
      "inputs": [
        {
          "internalType": "uint256",
          "name": "",
          "type": "uint256"
        }
      ],
      "name": "participantAddr",
      "outputs": [
        {
          "internalType": "address",
          "name": "",
          "type": "address"
        }
      ],
      "stateMutability": "view",
      "type": "function",
      "constant": true
    },
    {
      "inputs": [
        {
          "internalType": "address",
          "name": "",
          "type": "address"
        }
      ],
      "name": "participantDetails",
      "outputs": [
        {
          "internalType": "address",
          "name": "account",
          "type": "address"
        },
        {
          "internalType": "string",
          "name": "name",
          "type": "string"
        },
        {
          "internalType": "string",
          "name": "email",
          "type": "string"
        },
        {
          "internalType": "uint256",
          "name": "numSessionsPerformed",
          "type": "uint256"
        },
        {
          "internalType": "uint256",
          "name": "deviation",
          "type": "uint256"
        }
      ],
      "stateMutability": "view",
      "type": "function",
      "constant": true
    },
    {
      "inputs": [],
      "name": "totalParticipants",
      "outputs": [
        {
          "internalType": "uint256",
          "name": "",
          "type": "uint256"
        }
      ],
      "stateMutability": "view",
      "type": "function",
      "constant": true
    },
    {
      "inputs": [],
      "name": "totalSessions",
      "outputs": [
        {
          "internalType": "uint256",
          "name": "",
          "type": "uint256"
        }
      ],
      "stateMutability": "view",
      "type": "function",
      "constant": true
    },
    {
      "inputs": [
        {
          "internalType": "address",
          "name": "session",
          "type": "address"
        }
      ],
      "name": "addSession",
      "outputs": [],
      "stateMutability": "nonpayable",
      "type": "function"
    },
    {
      "inputs": [
        {
          "internalType": "string",
          "name": "_name",
          "type": "string"
        },
        {
          "internalType": "string",
          "name": "_email",
          "type": "string"
        }
      ],
      "name": "enterParticipant",
      "outputs": [],
      "stateMutability": "nonpayable",
      "type": "function"
    },
    {
      "inputs": [
        {
          "internalType": "address",
          "name": "_account",
          "type": "address"
        },
        {
          "internalType": "string",
          "name": "_name",
          "type": "string"
        },
        {
          "internalType": "string",
          "name": "_email",
          "type": "string"
        },
        {
          "internalType": "uint256",
          "name": "_numSessionsPerformed",
          "type": "uint256"
        },
        {
          "internalType": "uint256",
          "name": "_deviation",
          "type": "uint256"
        }
      ],
      "name": "updateParticipantByAdmin",
      "outputs": [],
      "stateMutability": "nonpayable",
      "type": "function"
    },
    {
      "inputs": [
        {
          "internalType": "string",
          "name": "_name",
          "type": "string"
        },
        {
          "internalType": "string",
          "name": "_email",
          "type": "string"
        }
      ],
      "name": "updateParticipantByUser",
      "outputs": [],
      "stateMutability": "nonpayable",
      "type": "function"
    },
    {
      "inputs": [
        {
          "internalType": "address",
          "name": "_participantAddr",
          "type": "address"
        },
        {
          "internalType": "uint256",
          "name": "_newDeviation",
          "type": "uint256"
        }
      ],
      "name": "updateDeviation",
      "outputs": [],
      "stateMutability": "nonpayable",
      "type": "function"
    },
    {
      "inputs": [
        {
          "internalType": "address",
          "name": "_participant",
          "type": "address"
        }
      ],
      "name": "getAParticipant",
      "outputs": [
        {
          "internalType": "address",
          "name": "",
          "type": "address"
        },
        {
          "internalType": "string",
          "name": "",
          "type": "string"
        },
        {
          "internalType": "string",
          "name": "",
          "type": "string"
        },
        {
          "internalType": "uint256",
          "name": "",
          "type": "uint256"
        },
        {
          "internalType": "uint256",
          "name": "",
          "type": "uint256"
        }
      ],
      "stateMutability": "view",
      "type": "function",
      "constant": true
    },
    {
      "inputs": [],
      "name": "getAdmin",
      "outputs": [
        {
          "internalType": "address",
          "name": "",
          "type": "address"
        }
      ],
      "stateMutability": "view",
      "type": "function",
      "constant": true
    }
  ],
  "bytecode": "0x608060405234801561001057600080fd5b5033600260006101000a81548173ffffffffffffffffffffffffffffffffffffffff021916908373ffffffffffffffffffffffffffffffffffffffff1602179055506118e9806100616000396000f3fe608060405234801561001057600080fd5b50600436106100cf5760003560e01c80636f5db0b51161008c578063bbfa2d9b11610066578063bbfa2d9b1461022e578063d5c54bc41461024a578063f390dd8614610266578063f851a44014610282576100cf565b80636f5db0b5146101be5780638e1d11c5146101dc578063a26dbf2614610210576100cf565b8063100171c2146100d45780631f60614c14610108578063201b70e91461012457806332604459146101545780635118137d146101845780636e9960c3146101a0575b600080fd5b6100ee60048036038101906100e99190610e17565b6102a0565b6040516100ff959493929190610efc565b60405180910390f35b610122600480360381019061011d9190611092565b6104a7565b005b61013e60048036038101906101399190611136565b6106b9565b60405161014b9190611163565b60405180910390f35b61016e60048036038101906101699190611136565b6106f8565b60405161017b9190611163565b60405180910390f35b61019e60048036038101906101999190611092565b610737565b005b6101a8610834565b6040516101b59190611163565b60405180910390f35b6101c661085e565b6040516101d3919061117e565b60405180910390f35b6101f660048036038101906101f19190610e17565b610864565b604051610207959493929190610efc565b60405180910390f35b6102186109ca565b604051610225919061117e565b60405180910390f35b61024860048036038101906102439190611199565b6109d0565b005b610264600480360381019061025f919061124c565b610b3c565b005b610280600480360381019061027b9190610e17565b610c71565b005b61028a610d7f565b6040516102979190611163565b60405180910390f35b6000606080600080600260009054906101000a900473ffffffffffffffffffffffffffffffffffffffff1673ffffffffffffffffffffffffffffffffffffffff163373ffffffffffffffffffffffffffffffffffffffff161461030257600080fd5b60008060008873ffffffffffffffffffffffffffffffffffffffff1673ffffffffffffffffffffffffffffffffffffffff16815260200190815260200160002090508060000160009054906101000a900473ffffffffffffffffffffffffffffffffffffffff16816001018260020183600301548460040154838054610387906112bb565b80601f01602080910402602001604051908101604052809291908181526020018280546103b3906112bb565b80156104005780601f106103d557610100808354040283529160200191610400565b820191906000526020600020905b8154815290600101906020018083116103e357829003601f168201915b50505050509350828054610413906112bb565b80601f016020809104026020016040519081016040528092919081815260200182805461043f906112bb565b801561048c5780601f106104615761010080835404028352916020019161048c565b820191906000526020600020905b81548152906001019060200180831161046f57829003601f168201915b50505050509250955095509550955095505091939590929450565b60008060003373ffffffffffffffffffffffffffffffffffffffff1673ffffffffffffffffffffffffffffffffffffffff16815260200190815260200160002060010180546104f5906112bb565b9050148015610551575060008060003373ffffffffffffffffffffffffffffffffffffffff1673ffffffffffffffffffffffffffffffffffffffff168152602001908152602001600020600201805461054d906112bb565b9050145b610590576040517f08c379a00000000000000000000000000000000000000000000000000000000081526004016105879061135e565b60405180910390fd5b60008060003373ffffffffffffffffffffffffffffffffffffffff1673ffffffffffffffffffffffffffffffffffffffff1681526020019081526020016000209050338160000160006101000a81548173ffffffffffffffffffffffffffffffffffffffff021916908373ffffffffffffffffffffffffffffffffffffffff16021790555082816001019081610626919061152a565b5081816002019081610638919061152a565b506005600081548092919061064c9061162b565b91905055506001339080600181540180825580915050600190039060005260206000200160009091909190916101000a81548173ffffffffffffffffffffffffffffffffffffffff021916908373ffffffffffffffffffffffffffffffffffffffff160217905550505050565b600181815481106106c957600080fd5b906000526020600020016000915054906101000a900473ffffffffffffffffffffffffffffffffffffffff1681565b6003818154811061070857600080fd5b906000526020600020016000915054906101000a900473ffffffffffffffffffffffffffffffffffffffff1681565b60008060003373ffffffffffffffffffffffffffffffffffffffff1673ffffffffffffffffffffffffffffffffffffffff16815260200190815260200160002090503373ffffffffffffffffffffffffffffffffffffffff168160000160009054906101000a900473ffffffffffffffffffffffffffffffffffffffff1673ffffffffffffffffffffffffffffffffffffffff161461080b576040517f08c379a0000000000000000000000000000000000000000000000000000000008152600401610802906116bf565b60405180910390fd5b8281600101908161081c919061152a565b508181600201908161082e919061152a565b50505050565b6000600260009054906101000a900473ffffffffffffffffffffffffffffffffffffffff16905090565b60045481565b60006020528060005260406000206000915090508060000160009054906101000a900473ffffffffffffffffffffffffffffffffffffffff16908060010180546108ad906112bb565b80601f01602080910402602001604051908101604052809291908181526020018280546108d9906112bb565b80156109265780601f106108fb57610100808354040283529160200191610926565b820191906000526020600020905b81548152906001019060200180831161090957829003601f168201915b50505050509080600201805461093b906112bb565b80601f0160208091040260200160405190810160405280929190818152602001828054610967906112bb565b80156109b45780601f10610989576101008083540402835291602001916109b4565b820191906000526020600020905b81548152906001019060200180831161099757829003601f168201915b5050505050908060030154908060040154905085565b60055481565b600260009054906101000a900473ffffffffffffffffffffffffffffffffffffffff1673ffffffffffffffffffffffffffffffffffffffff163373ffffffffffffffffffffffffffffffffffffffff1614610a2a57600080fd5b60008060008773ffffffffffffffffffffffffffffffffffffffff1673ffffffffffffffffffffffffffffffffffffffff16815260200190815260200160002090508573ffffffffffffffffffffffffffffffffffffffff168160000160009054906101000a900473ffffffffffffffffffffffffffffffffffffffff1673ffffffffffffffffffffffffffffffffffffffff1614610afe576040517f08c379a0000000000000000000000000000000000000000000000000000000008152600401610af590611751565b60405180910390fd5b84816001019081610b0f919061152a565b5083816002019081610b21919061152a565b50828160030181905550818160040181905550505050505050565b600260009054906101000a900473ffffffffffffffffffffffffffffffffffffffff1673ffffffffffffffffffffffffffffffffffffffff163273ffffffffffffffffffffffffffffffffffffffff1614610bcc576040517f08c379a0000000000000000000000000000000000000000000000000000000008152600401610bc3906117bd565b60405180910390fd5b60008060008473ffffffffffffffffffffffffffffffffffffffff1673ffffffffffffffffffffffffffffffffffffffff1681526020019081526020016000209050806003016000815480929190610c239061162b565b9190505550600081600301549050600181610c3e91906117dd565b83828460040154610c4f9190611811565b610c5991906117dd565b610c639190611882565b826004018190555050505050565b600260009054906101000a900473ffffffffffffffffffffffffffffffffffffffff1673ffffffffffffffffffffffffffffffffffffffff163273ffffffffffffffffffffffffffffffffffffffff1614610d01576040517f08c379a0000000000000000000000000000000000000000000000000000000008152600401610cf8906117bd565b60405180910390fd5b6003819080600181540180825580915050600190039060005260206000200160009091909190916101000a81548173ffffffffffffffffffffffffffffffffffffffff021916908373ffffffffffffffffffffffffffffffffffffffff16021790555060046000815480929190610d779061162b565b919050555050565b600260009054906101000a900473ffffffffffffffffffffffffffffffffffffffff1681565b6000604051905090565b600080fd5b600080fd5b600073ffffffffffffffffffffffffffffffffffffffff82169050919050565b6000610de482610db9565b9050919050565b610df481610dd9565b8114610dff57600080fd5b50565b600081359050610e1181610deb565b92915050565b600060208284031215610e2d57610e2c610daf565b5b6000610e3b84828501610e02565b91505092915050565b610e4d81610dd9565b82525050565b600081519050919050565b600082825260208201905092915050565b60005b83811015610e8d578082015181840152602081019050610e72565b60008484015250505050565b6000601f19601f8301169050919050565b6000610eb582610e53565b610ebf8185610e5e565b9350610ecf818560208601610e6f565b610ed881610e99565b840191505092915050565b6000819050919050565b610ef681610ee3565b82525050565b600060a082019050610f116000830188610e44565b8181036020830152610f238187610eaa565b90508181036040830152610f378186610eaa565b9050610f466060830185610eed565b610f536080830184610eed565b9695505050505050565b600080fd5b600080fd5b7f4e487b7100000000000000000000000000000000000000000000000000000000600052604160045260246000fd5b610f9f82610e99565b810181811067ffffffffffffffff82111715610fbe57610fbd610f67565b5b80604052505050565b6000610fd1610da5565b9050610fdd8282610f96565b919050565b600067ffffffffffffffff821115610ffd57610ffc610f67565b5b61100682610e99565b9050602081019050919050565b82818337600083830152505050565b600061103561103084610fe2565b610fc7565b90508281526020810184848401111561105157611050610f62565b5b61105c848285611013565b509392505050565b600082601f83011261107957611078610f5d565b5b8135611089848260208601611022565b91505092915050565b600080604083850312156110a9576110a8610daf565b5b600083013567ffffffffffffffff8111156110c7576110c6610db4565b5b6110d385828601611064565b925050602083013567ffffffffffffffff8111156110f4576110f3610db4565b5b61110085828601611064565b9150509250929050565b61111381610ee3565b811461111e57600080fd5b50565b6000813590506111308161110a565b92915050565b60006020828403121561114c5761114b610daf565b5b600061115a84828501611121565b91505092915050565b60006020820190506111786000830184610e44565b92915050565b60006020820190506111936000830184610eed565b92915050565b600080600080600060a086880312156111b5576111b4610daf565b5b60006111c388828901610e02565b955050602086013567ffffffffffffffff8111156111e4576111e3610db4565b5b6111f088828901611064565b945050604086013567ffffffffffffffff81111561121157611210610db4565b5b61121d88828901611064565b935050606061122e88828901611121565b925050608061123f88828901611121565b9150509295509295909350565b6000806040838503121561126357611262610daf565b5b600061127185828601610e02565b925050602061128285828601611121565b9150509250929050565b7f4e487b7100000000000000000000000000000000000000000000000000000000600052602260045260246000fd5b600060028204905060018216806112d357607f821691505b6020821081036112e6576112e561128c565b5b50919050565b7f4163636f756e7420697320616c726561647920656e74657265642c20676f207460008201527f6f2075706461746520696e666f206966206e6565646564000000000000000000602082015250565b6000611348603783610e5e565b9150611353826112ec565b604082019050919050565b600060208201905081810360008301526113778161133b565b9050919050565b60008190508160005260206000209050919050565b60006020601f8301049050919050565b600082821b905092915050565b6000600883026113e07fffffffffffffffffffffffffffffffffffffffffffffffffffffffffffffffff826113a3565b6113ea86836113a3565b95508019841693508086168417925050509392505050565b6000819050919050565b600061142761142261141d84610ee3565b611402565b610ee3565b9050919050565b6000819050919050565b6114418361140c565b61145561144d8261142e565b8484546113b0565b825550505050565b600090565b61146a61145d565b611475818484611438565b505050565b5b818110156114995761148e600082611462565b60018101905061147b565b5050565b601f8211156114de576114af8161137e565b6114b884611393565b810160208510156114c7578190505b6114db6114d385611393565b83018261147a565b50505b505050565b600082821c905092915050565b6000611501600019846008026114e3565b1980831691505092915050565b600061151a83836114f0565b9150826002028217905092915050565b61153382610e53565b67ffffffffffffffff81111561154c5761154b610f67565b5b61155682546112bb565b61156182828561149d565b600060209050601f8311600181146115945760008415611582578287015190505b61158c858261150e565b8655506115f4565b601f1984166115a28661137e565b60005b828110156115ca578489015182556001820191506020850194506020810190506115a5565b868310156115e757848901516115e3601f8916826114f0565b8355505b6001600288020188555050505b505050505050565b7f4e487b7100000000000000000000000000000000000000000000000000000000600052601160045260246000fd5b600061163682610ee3565b91507fffffffffffffffffffffffffffffffffffffffffffffffffffffffffffffffff8203611668576116676115fc565b5b600182019050919050565b7f53686f756c642062652061207061727469636970616e74206164647265737300600082015250565b60006116a9601f83610e5e565b91506116b482611673565b602082019050919050565b600060208201905081810360008301526116d88161169c565b9050919050565b7f456e7465726564206163636f756e7420646f6573206e6f74206578697374212160008201527f2100000000000000000000000000000000000000000000000000000000000000602082015250565b600061173b602183610e5e565b9150611746826116df565b604082019050919050565b6000602082019050818103600083015261176a8161172e565b9050919050565b7f4f6e6c792061646d696e2063616e2061646420612073657373696f6e21000000600082015250565b60006117a7601d83610e5e565b91506117b282611771565b602082019050919050565b600060208201905081810360008301526117d68161179a565b9050919050565b60006117e882610ee3565b91506117f383610ee3565b925082820190508082111561180b5761180a6115fc565b5b92915050565b600061181c82610ee3565b915061182783610ee3565b925082820261183581610ee3565b9150828204841483151761184c5761184b6115fc565b5b5092915050565b7f4e487b7100000000000000000000000000000000000000000000000000000000600052601260045260246000fd5b600061188d82610ee3565b915061189883610ee3565b9250826118a8576118a7611853565b5b82820490509291505056fea2646970667358221220a48372b56d3fbf2200f186d326614d33fed983df9e0a55716ed7790778682a8964736f6c63430008120033",
  "immutableReferences": {},
  "source": "// SPDX-License-Identifier: MIT\npragma solidity ^0.8.9;\nimport \"./Session.sol\";\n\n\ncontract Main is IMain{\n\n    // Structure to hold details of participants\n    struct IParticipant {\n        address account; // address of participiant\n        string name;     // name of participant\n        string email;    // email of participant\n        uint256 numSessionsPerformed; // number of sessionns that a participant performed\n        uint256 deviation;   // deviation of participant (%)\n    }\n    mapping(address => IParticipant) public participantDetails; //  Mapping to participant's information\n    address [] public participantAddr; // a list of address of all participants\n\n    address public admin; // address of administrator of the contract\n    address [] public deployedSessions; // a list of addresses of sessions deployed\n    uint256 public totalSessions; // number of sessions deployed\n    uint256 public totalParticipants; // number of participants\n\n    /**\n     * @dev admin varible will be assigned to the deployer of the main contract\n     */\n    constructor() {\n        admin = msg.sender;\n    }\n    /**\n     * @dev a modifier onlyAdmin is created for admin only\n     */\n    modifier onlyAdmin{\n        require(msg.sender == admin);\n        _;\n    }\n\n    /**\n     * @dev add a session contract address to main contract and Increase number of session deployed. \n     * @param session will be stored to the deployedSession array\n     */\n    function addSession(address session) public {\n        require(tx.origin == admin, \"Only admin can add a session!\");\n        deployedSessions.push(session);\n        totalSessions++; \n    }\n\n    /**\n     * @dev a user is able to enter the participant's information\n     * Requiremnts: Participant's name and participant's email\n     * User Information's update\n     */\n    function enterParticipant(string memory _name, string  memory _email) public{\n        // check if account is not yet entered\n        require(\n                bytes(participantDetails[msg.sender].name).length == 0\n                && bytes(participantDetails[msg.sender].email).length ==0 ,\n                \"Account is already entered, go to update info if needed\"\n        );\n        IParticipant storage participant = participantDetails[msg.sender];\n        participant .account = msg.sender;\n        participant.name = _name;\n        participant.email = _email;\n        totalParticipants++; // total of participants increase 1 when signup successful\n        participantAddr.push(msg.sender); // save participant address to a list\n    }\n    /**\n     * @dev update participants infomation -  admin role\n     */\n    function updateParticipantByAdmin(\n        address _account,\n        string memory _name,\n        string memory _email,\n        uint256 _numSessionsPerformed,\n        uint256 _deviation\n    ) public onlyAdmin{\n        IParticipant storage participant = participantDetails[_account];\n        require(participant.account == _account, \"Entered account does not exist!!!\");\n        participant.name = _name;\n        participant.email = _email;\n        participant.numSessionsPerformed = _numSessionsPerformed;\n        participant.deviation = _deviation;\n    }\n    /**\n     * @dev update participants infomation - user role\n     * requirememts: name and email\n     */\n     function updateParticipantByUser(string memory _name, string  memory _email) public{\n        IParticipant storage participant = participantDetails[msg.sender];\n        require(participant.account == msg.sender, \"Should be a participant address\");\n        participant.name = _name;\n        participant.email = _email;\n    }\n\n     /**\n     * @dev Update the deviation from the participant who has joined pricing sessions\n     */\n    function updateDeviation(address _participantAddr, uint256 _newDeviation) public{\n        require(tx.origin == admin, \"Only admin can add a session!\");\n        IParticipant storage participant = participantDetails[_participantAddr];\n        // save numSessionsPerformed of each participant to local variable\n        participant.numSessionsPerformed ++;\n        uint256 paticipantNumSessionsPerformed = participant.numSessionsPerformed;\n        participant.deviation = (participant.deviation*paticipantNumSessionsPerformed + _newDeviation)\n        /(paticipantNumSessionsPerformed + 1);   \n    }\n\n    /**\n     * @dev admin allows to get participant information\n     * @param _participant address of participant as an input for the details\n     * including: account, name, email, number of session performed, deviation\n     */\n    function getAParticipant(address _participant) \n    public view onlyAdmin returns(address, string memory, string memory, uint256, uint256){\n        IParticipant storage participant = participantDetails[_participant];\n        return(\n            participant.account,\n            participant.name,\n            participant.email,\n            participant.numSessionsPerformed,\n            participant.deviation\n        );\n    }\n\n    /**\n     * @dev get admin address for the session contract\n     */\n    function getAdmin() public view returns(address){\n        return admin;\n    }\n    \n\n}\n",
  "sourcePath": "C:\\Users\\Hi Windows 11\\Desktop\\MyBaby\\Coin\\Blockchain_course_Funix\\PO5_Project\\FunixPricingChain v3\\truffle\\contracts\\Main.sol",
  "compiler": {
    "name": "solc",
    "version": "0.8.18+commit.87f61d96.Emscripten.clang"
  },
  "schemaVersion": "3.4.11",
  "updatedAt": "2023-02-18T13:11:48.073Z",
  "networkType": "ethereum",
  "devdoc": {
    "kind": "dev",
    "methods": {
      "addSession(address)": {
        "details": "add a session contract address to main contract and Increase number of session deployed. ",
        "params": {
          "session": "will be stored to the deployedSession array"
        }
      },
      "constructor": {
        "details": "admin varible will be assigned to the deployer of the main contract"
      },
      "enterParticipant(string,string)": {
        "details": "a user is able to enter the participant's information Requiremnts: Participant's name and participant's email User Information's update"
      },
      "getAParticipant(address)": {
        "details": "admin allows to get participant information",
        "params": {
          "_participant": "address of participant as an input for the details including: account, name, email, number of session performed, deviation"
        }
      },
      "getAdmin()": {
        "details": "get admin address for the session contract"
      },
      "updateDeviation(address,uint256)": {
        "details": "Update the deviation from the participant who has joined pricing sessions"
      },
      "updateParticipantByAdmin(address,string,string,uint256,uint256)": {
        "details": "update participants infomation -  admin role"
      },
      "updateParticipantByUser(string,string)": {
        "details": "update participants infomation - user role requirememts: name and email"
      }
    },
    "version": 1
  },
  "userdoc": {
    "kind": "user",
    "methods": {},
    "version": 1
  }
}