{
  "contractName": "Main",
  "abi": [
    {
      "constant": true,
      "inputs": [
        {
          "name": "",
          "type": "address"
        }
      ],
      "name": "participants",
      "outputs": [
        {
          "name": "fullname",
          "type": "string"
        },
        {
          "name": "email",
          "type": "string"
        },
        {
          "name": "nSessions",
          "type": "uint8"
        },
        {
          "name": "deviation",
          "type": "uint16"
        }
      ],
      "payable": false,
      "stateMutability": "view",
      "type": "function"
    },
    {
      "constant": true,
      "inputs": [],
      "name": "nSessions",
      "outputs": [
        {
          "name": "",
          "type": "uint256"
        }
      ],
      "payable": false,
      "stateMutability": "view",
      "type": "function"
    },
    {
      "constant": true,
      "inputs": [
        {
          "name": "",
          "type": "uint256"
        }
      ],
      "name": "sessions",
      "outputs": [
        {
          "name": "",
          "type": "address"
        }
      ],
      "payable": false,
      "stateMutability": "view",
      "type": "function"
    },
    {
      "constant": true,
      "inputs": [
        {
          "name": "",
          "type": "uint256"
        }
      ],
      "name": "iParticipants",
      "outputs": [
        {
          "name": "",
          "type": "address"
        }
      ],
      "payable": false,
      "stateMutability": "view",
      "type": "function"
    },
    {
      "constant": true,
      "inputs": [],
      "name": "nParticipants",
      "outputs": [
        {
          "name": "",
          "type": "uint256"
        }
      ],
      "payable": false,
      "stateMutability": "view",
      "type": "function"
    },
    {
      "constant": true,
      "inputs": [],
      "name": "admin",
      "outputs": [
        {
          "name": "",
          "type": "address"
        }
      ],
      "payable": false,
      "stateMutability": "view",
      "type": "function"
    },
    {
      "inputs": [],
      "payable": false,
      "stateMutability": "nonpayable",
      "type": "constructor"
    },
    {
      "constant": false,
      "inputs": [
        {
          "name": "fullname",
          "type": "string"
        },
        {
          "name": "email",
          "type": "string"
        }
      ],
      "name": "register",
      "outputs": [],
      "payable": false,
      "stateMutability": "nonpayable",
      "type": "function"
    },
    {
      "constant": false,
      "inputs": [
        {
          "name": "session",
          "type": "address"
        }
      ],
      "name": "addSession",
      "outputs": [],
      "payable": false,
      "stateMutability": "nonpayable",
      "type": "function"
    }
  ],
  "bytecode": "0x608060405234801561001057600080fd5b50336000806101000a81548173ffffffffffffffffffffffffffffffffffffffff021916908373ffffffffffffffffffffffffffffffffffffffff1602179055506108fe806100606000396000f30060806040526004361061008e576000357c0100000000000000000000000000000000000000000000000000000000900463ffffffff16806309e69ede146100935780633ffbd47f146101d7578063454eed7d1461028657806383c4b7a3146102b1578063a3b9c9e51461031e578063b63bc3b41461038b578063f390dd86146103b6578063f851a440146103f9575b600080fd5b34801561009f57600080fd5b506100d4600480360381019080803573ffffffffffffffffffffffffffffffffffffffff169060200190929190505050610450565b6040518080602001806020018560ff1660ff1681526020018461ffff1661ffff168152602001838103835287818151815260200191508051906020019080838360005b83811015610132578082015181840152602081019050610117565b50505050905090810190601f16801561015f5780820380516001836020036101000a031916815260200191505b50838103825286818151815260200191508051906020019080838360005b8381101561019857808201518184015260208101905061017d565b50505050905090810190601f1680156101c55780820380516001836020036101000a031916815260200191505b50965050505050505060405180910390f35b3480156101e357600080fd5b50610284600480360381019080803590602001908201803590602001908080601f0160208091040260200160405190810160405280939291908181526020018383808284378201915050505050509192919290803590602001908201803590602001908080601f01602080910402602001604051908101604052809392919081815260200183838082843782019150505050505091929192905050506105cb565b005b34801561029257600080fd5b5061029b610712565b6040518082815260200191505060405180910390f35b3480156102bd57600080fd5b506102dc60048036038101908080359060200190929190505050610718565b604051808273ffffffffffffffffffffffffffffffffffffffff1673ffffffffffffffffffffffffffffffffffffffff16815260200191505060405180910390f35b34801561032a57600080fd5b5061034960048036038101908080359060200190929190505050610756565b604051808273ffffffffffffffffffffffffffffffffffffffff1673ffffffffffffffffffffffffffffffffffffffff16815260200191505060405180910390f35b34801561039757600080fd5b506103a0610794565b6040518082815260200191505060405180910390f35b3480156103c257600080fd5b506103f7600480360381019080803573ffffffffffffffffffffffffffffffffffffffff16906020019092919050505061079a565b005b34801561040557600080fd5b5061040e610808565b604051808273ffffffffffffffffffffffffffffffffffffffff1673ffffffffffffffffffffffffffffffffffffffff16815260200191505060405180910390f35b6003602052806000526040600020600091509050806000018054600181600116156101000203166002900480601f0160208091040260200160405190810160405280929190818152602001828054600181600116156101000203166002900480156104fc5780601f106104d1576101008083540402835291602001916104fc565b820191906000526020600020905b8154815290600101906020018083116104df57829003601f168201915b505050505090806001018054600181600116156101000203166002900480601f01602080910402602001604051908101604052809291908181526020018280546001816001161561010002031660029004801561059a5780601f1061056f5761010080835404028352916020019161059a565b820191906000526020600020905b81548152906001019060200180831161057d57829003601f168201915b5050505050908060020160009054906101000a900460ff16908060020160019054906101000a900461ffff16905084565b600080339150600360008373ffffffffffffffffffffffffffffffffffffffff1673ffffffffffffffffffffffffffffffffffffffff168152602001908152602001600020905060008160020160009054906101000a900460ff1660ff16141561069b5760018290806001815401808255809150509060018203906000526020600020016000909192909190916101000a81548173ffffffffffffffffffffffffffffffffffffffff021916908373ffffffffffffffffffffffffffffffffffffffff1602179055506002819055505b838160000190805190602001906106b392919061082d565b50828160010190805190602001906106cc92919061082d565b5060018160020160006101000a81548160ff021916908360ff1602179055506113888160020160016101000a81548161ffff021916908361ffff16021790555050505050565b60055481565b60048181548110151561072757fe5b906000526020600020016000915054906101000a900473ffffffffffffffffffffffffffffffffffffffff1681565b60018181548110151561076557fe5b906000526020600020016000915054906101000a900473ffffffffffffffffffffffffffffffffffffffff1681565b60025481565b60048190806001815401808255809150509060018203906000526020600020016000909192909190916101000a81548173ffffffffffffffffffffffffffffffffffffffff021916908373ffffffffffffffffffffffffffffffffffffffff16021790555060058190555050565b6000809054906101000a900473ffffffffffffffffffffffffffffffffffffffff1681565b828054600181600116156101000203166002900490600052602060002090601f016020900481019282601f1061086e57805160ff191683800117855561089c565b8280016001018555821561089c579182015b8281111561089b578251825591602001919060010190610880565b5b5090506108a991906108ad565b5090565b6108cf91905b808211156108cb5760008160009055506001016108b3565b5090565b905600a165627a7a723058205407e50f2ac01e8f6200f912ec21ba5e1b02ad9d9b800f74be15df105a206a9b0029",
  "source": "pragma solidity ^0.4.17;\r\n\r\ncontract Main {\r\n\r\n    // Structure to hold details of Bidder\r\n    struct IParticipant {\r\n        string fullname;\r\n        string email;\r\n        uint8  nSessions;\r\n        uint16 deviation;\r\n    }\r\n\r\n    address public admin;\r\n    address[] public iParticipants;\r\n    uint256 public nParticipants;\r\n    mapping(address => IParticipant) public participants;\r\n\r\n    address[] public sessions;\r\n    uint256 public nSessions;\r\n\r\n    function Main() public {\r\n        admin = msg.sender;\r\n    }\r\n    \r\n    function register(string fullname, string email) public { \r\n        address _account = msg.sender;\r\n        IParticipant storage currentParticipant = participants[_account];\r\n        if (currentParticipant.nSessions == 0 ) {\r\n          nParticipants = iParticipants.push(_account);\r\n        }\r\n        currentParticipant.fullname = fullname;\r\n        currentParticipant.email = email;\r\n        currentParticipant.nSessions = 1;\r\n        currentParticipant.deviation = 5000;// Default is 50%\r\n    }\r\n\r\n    function addSession(address session) public {\r\n        nSessions = sessions.push(session);\r\n    }\r\n\r\n}\r\n",
  "sourcePath": "D:/Git/xseries/course-4/truffle/contracts/Main.sol",
  "compiler": {
    "name": "solc",
    "version": "0.4.26+commit.4563c3fc.Emscripten.clang"
  },
  "schemaVersion": "3.0.16",
  "updatedAt": "2019-10-07T01:02:54.742Z",
  "devdoc": {
    "methods": {}
  },
  "userdoc": {
    "methods": {}
  }
}