{
  "contractName": "Session",
  "abi": [
    {
      "inputs": [
        {
          "internalType": "address",
          "name": "_mainContract",
          "type": "address"
        },
        {
          "internalType": "string",
          "name": "_productName",
          "type": "string"
        },
        {
          "internalType": "string",
          "name": "_productDescription",
          "type": "string"
        },
        {
          "internalType": "string",
          "name": "_productImages",
          "type": "string"
        }
      ],
      "stateMutability": "nonpayable",
      "type": "constructor"
    },
    {
      "inputs": [],
      "name": "admin",
      "outputs": [
        {
          "internalType": "address",
          "name": "",
          "type": "address"
        }
      ],
      "stateMutability": "view",
      "type": "function"
    },
    {
      "inputs": [],
      "name": "finalPrice",
      "outputs": [
        {
          "internalType": "uint256",
          "name": "",
          "type": "uint256"
        }
      ],
      "stateMutability": "view",
      "type": "function"
    },
    {
      "inputs": [],
      "name": "joinedParticipantCount",
      "outputs": [
        {
          "internalType": "uint8",
          "name": "",
          "type": "uint8"
        }
      ],
      "stateMutability": "view",
      "type": "function"
    },
    {
      "inputs": [],
      "name": "mainContract",
      "outputs": [
        {
          "internalType": "address",
          "name": "",
          "type": "address"
        }
      ],
      "stateMutability": "view",
      "type": "function"
    },
    {
      "inputs": [],
      "name": "participantCount",
      "outputs": [
        {
          "internalType": "uint8",
          "name": "",
          "type": "uint8"
        }
      ],
      "stateMutability": "view",
      "type": "function"
    },
    {
      "inputs": [],
      "name": "productDescription",
      "outputs": [
        {
          "internalType": "string",
          "name": "",
          "type": "string"
        }
      ],
      "stateMutability": "view",
      "type": "function"
    },
    {
      "inputs": [],
      "name": "productImages",
      "outputs": [
        {
          "internalType": "string",
          "name": "",
          "type": "string"
        }
      ],
      "stateMutability": "view",
      "type": "function"
    },
    {
      "inputs": [],
      "name": "productName",
      "outputs": [
        {
          "internalType": "string",
          "name": "",
          "type": "string"
        }
      ],
      "stateMutability": "view",
      "type": "function"
    },
    {
      "inputs": [],
      "name": "proposedPrice",
      "outputs": [
        {
          "internalType": "uint256",
          "name": "",
          "type": "uint256"
        }
      ],
      "stateMutability": "view",
      "type": "function"
    },
    {
      "inputs": [
        {
          "internalType": "uint256",
          "name": "",
          "type": "uint256"
        }
      ],
      "name": "sessionParticipants",
      "outputs": [
        {
          "internalType": "address",
          "name": "participantAddress",
          "type": "address"
        },
        {
          "internalType": "uint256",
          "name": "participantPrice",
          "type": "uint256"
        },
        {
          "internalType": "uint256",
          "name": "newDeviation",
          "type": "uint256"
        },
        {
          "internalType": "bool",
          "name": "registered",
          "type": "bool"
        },
        {
          "internalType": "bool",
          "name": "sessionJoined",
          "type": "bool"
        },
        {
          "internalType": "uint8",
          "name": "participantID",
          "type": "uint8"
        }
      ],
      "stateMutability": "view",
      "type": "function"
    },
    {
      "inputs": [
        {
          "internalType": "address",
          "name": "",
          "type": "address"
        }
      ],
      "name": "sessionParticipantsDetails",
      "outputs": [
        {
          "internalType": "address",
          "name": "participantAddress",
          "type": "address"
        },
        {
          "internalType": "uint256",
          "name": "participantPrice",
          "type": "uint256"
        },
        {
          "internalType": "uint256",
          "name": "newDeviation",
          "type": "uint256"
        },
        {
          "internalType": "bool",
          "name": "registered",
          "type": "bool"
        },
        {
          "internalType": "bool",
          "name": "sessionJoined",
          "type": "bool"
        },
        {
          "internalType": "uint8",
          "name": "participantID",
          "type": "uint8"
        }
      ],
      "stateMutability": "view",
      "type": "function"
    },
    {
      "inputs": [],
      "name": "state",
      "outputs": [
        {
          "internalType": "enum Session.State",
          "name": "",
          "type": "uint8"
        }
      ],
      "stateMutability": "view",
      "type": "function"
    },
    {
      "inputs": [],
      "name": "timeout",
      "outputs": [
        {
          "internalType": "uint256",
          "name": "",
          "type": "uint256"
        }
      ],
      "stateMutability": "view",
      "type": "function"
    },
    {
      "inputs": [
        {
          "internalType": "string",
          "name": "_productName",
          "type": "string"
        },
        {
          "internalType": "string",
          "name": "_productDescription",
          "type": "string"
        },
        {
          "internalType": "string",
          "name": "_productImages",
          "type": "string"
        }
      ],
      "name": "updateProductInfo",
      "outputs": [],
      "stateMutability": "nonpayable",
      "type": "function"
    },
    {
      "inputs": [
        {
          "internalType": "address",
          "name": "_participant",
          "type": "address"
        }
      ],
      "name": "register",
      "outputs": [],
      "stateMutability": "nonpayable",
      "type": "function"
    },
    {
      "inputs": [],
      "name": "startPricingSession",
      "outputs": [],
      "stateMutability": "nonpayable",
      "type": "function"
    },
    {
      "inputs": [
        {
          "internalType": "uint256",
          "name": "_price",
          "type": "uint256"
        }
      ],
      "name": "priceProduct",
      "outputs": [],
      "stateMutability": "nonpayable",
      "type": "function"
    },
    {
      "inputs": [],
      "name": "closePricingSession",
      "outputs": [],
      "stateMutability": "nonpayable",
      "type": "function"
    },
    {
      "inputs": [],
      "name": "calculateProposedPrice",
      "outputs": [],
      "stateMutability": "nonpayable",
      "type": "function"
    },
    {
      "inputs": [
        {
          "internalType": "uint256",
          "name": "_finalPrice",
          "type": "uint256"
        }
      ],
      "name": "calculateDeviation",
      "outputs": [],
      "stateMutability": "nonpayable",
      "type": "function"
    },
    {
      "inputs": [
        {
          "internalType": "uint256",
          "name": "index",
          "type": "uint256"
        }
      ],
      "name": "getSessionParticipant",
      "outputs": [
        {
          "internalType": "address",
          "name": "",
          "type": "address"
        },
        {
          "internalType": "uint256",
          "name": "",
          "type": "uint256"
        },
        {
          "internalType": "uint256",
          "name": "",
          "type": "uint256"
        }
      ],
      "stateMutability": "view",
      "type": "function"
    },
    {
      "inputs": [],
      "name": "getProductInfo",
      "outputs": [
        {
          "internalType": "string",
          "name": "",
          "type": "string"
        },
        {
          "internalType": "string",
          "name": "",
          "type": "string"
        },
        {
          "internalType": "string",
          "name": "",
          "type": "string"
        }
      ],
      "stateMutability": "view",
      "type": "function"
    }
  ],
  "bytecode": "0x60806040526000603160006101000a81548160ff021916908360ff1602179055506000603160016101000a81548160ff021916908360ff1602179055506000603160026101000a81548160ff0219169083600481111562000065576200006462000308565b5b02179055503480156200007757600080fd5b50604051620030083803806200300883398181016040528101906200009d91906200052f565b836000806101000a81548173ffffffffffffffffffffffffffffffffffffffff021916908373ffffffffffffffffffffffffffffffffffffffff16021790555083600160006101000a81548173ffffffffffffffffffffffffffffffffffffffff021916908373ffffffffffffffffffffffffffffffffffffffff160217905550600160009054906101000a900473ffffffffffffffffffffffffffffffffffffffff1673ffffffffffffffffffffffffffffffffffffffff16636e9960c36040518163ffffffff1660e01b8152600401602060405180830381865afa1580156200018c573d6000803e3d6000fd5b505050506040513d601f19601f82011682018060405250810190620001b29190620005fe565b600260006101000a81548173ffffffffffffffffffffffffffffffffffffffff021916908373ffffffffffffffffffffffffffffffffffffffff16021790555082600390816200020391906200087b565b5081600490816200021591906200087b565b5080600590816200022791906200087b565b506001603160026101000a81548160ff0219169083600481111562000251576200025062000308565b5b0217905550620151804262000267919062000991565b603281905550600160009054906101000a900473ffffffffffffffffffffffffffffffffffffffff1673ffffffffffffffffffffffffffffffffffffffff1663f390dd86306040518263ffffffff1660e01b8152600401620002ca9190620009dd565b600060405180830381600087803b158015620002e557600080fd5b505af1158015620002fa573d6000803e3d6000fd5b5050505050505050620009fa565b7f4e487b7100000000000000000000000000000000000000000000000000000000600052602160045260246000fd5b6000604051905090565b600080fd5b600080fd5b600073ffffffffffffffffffffffffffffffffffffffff82169050919050565b600062000378826200034b565b9050919050565b6200038a816200036b565b81146200039657600080fd5b50565b600081519050620003aa816200037f565b92915050565b600080fd5b600080fd5b6000601f19601f8301169050919050565b7f4e487b7100000000000000000000000000000000000000000000000000000000600052604160045260246000fd5b6200040582620003ba565b810181811067ffffffffffffffff82111715620004275762000426620003cb565b5b80604052505050565b60006200043c62000337565b90506200044a8282620003fa565b919050565b600067ffffffffffffffff8211156200046d576200046c620003cb565b5b6200047882620003ba565b9050602081019050919050565b60005b83811015620004a557808201518184015260208101905062000488565b60008484015250505050565b6000620004c8620004c2846200044f565b62000430565b905082815260208101848484011115620004e757620004e6620003b5565b5b620004f484828562000485565b509392505050565b600082601f830112620005145762000513620003b0565b5b815162000526848260208601620004b1565b91505092915050565b600080600080608085870312156200054c576200054b62000341565b5b60006200055c8782880162000399565b945050602085015167ffffffffffffffff81111562000580576200057f62000346565b5b6200058e87828801620004fc565b935050604085015167ffffffffffffffff811115620005b257620005b162000346565b5b620005c087828801620004fc565b925050606085015167ffffffffffffffff811115620005e457620005e362000346565b5b620005f287828801620004fc565b91505092959194509250565b60006020828403121562000617576200061662000341565b5b6000620006278482850162000399565b91505092915050565b600081519050919050565b7f4e487b7100000000000000000000000000000000000000000000000000000000600052602260045260246000fd5b600060028204905060018216806200068357607f821691505b6020821081036200069957620006986200063b565b5b50919050565b60008190508160005260206000209050919050565b60006020601f8301049050919050565b600082821b905092915050565b600060088302620007037fffffffffffffffffffffffffffffffffffffffffffffffffffffffffffffffff82620006c4565b6200070f8683620006c4565b95508019841693508086168417925050509392505050565b6000819050919050565b6000819050919050565b60006200075c62000756620007508462000727565b62000731565b62000727565b9050919050565b6000819050919050565b62000778836200073b565b62000790620007878262000763565b848454620006d1565b825550505050565b600090565b620007a762000798565b620007b48184846200076d565b505050565b5b81811015620007dc57620007d06000826200079d565b600181019050620007ba565b5050565b601f8211156200082b57620007f5816200069f565b6200080084620006b4565b8101602085101562000810578190505b620008286200081f85620006b4565b830182620007b9565b50505b505050565b600082821c905092915050565b6000620008506000198460080262000830565b1980831691505092915050565b60006200086b83836200083d565b9150826002028217905092915050565b620008868262000630565b67ffffffffffffffff811115620008a257620008a1620003cb565b5b620008ae82546200066a565b620008bb828285620007e0565b600060209050601f831160018114620008f35760008415620008de578287015190505b620008ea85826200085d565b8655506200095a565b601f19841662000903866200069f565b60005b828110156200092d5784890151825560018201915060208501945060208101905062000906565b868310156200094d578489015162000949601f8916826200083d565b8355505b6001600288020188555050505b505050505050565b7f4e487b7100000000000000000000000000000000000000000000000000000000600052601160045260246000fd5b60006200099e8262000727565b9150620009ab8362000727565b9250828201905080821115620009c657620009c562000962565b5b92915050565b620009d7816200036b565b82525050565b6000602082019050620009f46000830184620009cc565b92915050565b6125fe8062000a0a6000396000f3fe608060405234801561001057600080fd5b50600436106101425760003560e01c806394c80379116100b8578063d270e7ab1161007c578063d270e7ab1461033b578063e3635bfd14610359578063efa492de14610377578063f212597e14610393578063f851a4401461039d578063fc72a385146103bb57610142565b806394c80379146102a557806396586a19146102c35780639c3c2f7a146102f5578063a6b513ee146102ff578063c19d93fb1461031d57610142565b80635446196a1161010a5780635446196a146101f0578063705c1a111461020c57806370dea79a146102415780637f7650eb1461025f5780638a30f8cc1461027d5780639212ef121461029b57610142565b80632a08c93714610147578063362f04c01461016357806337dda87e146101815780633bba99ea146101b65780634420e486146101d4575b600080fd5b610161600480360381019061015c9190611964565b6103db565b005b61016b610712565b60405161017891906119ad565b60405180910390f35b61019b60048036038101906101969190611a26565b610725565b6040516101ad96959493929190611a8c565b60405180910390f35b6101be6107a8565b6040516101cb9190611b7d565b60405180910390f35b6101ee60048036038101906101e99190611a26565b610836565b005b61020a60048036038101906102059190611cd4565b610c88565b005b61022660048036038101906102219190611964565b610d59565b60405161023896959493929190611a8c565b60405180910390f35b610249610de2565b6040516102569190611d7b565b60405180910390f35b610267610de8565b6040516102749190611b7d565b60405180910390f35b610285610e76565b6040516102929190611b7d565b60405180910390f35b6102a3610f04565b005b6102ad610fcd565b6040516102ba91906119ad565b60405180910390f35b6102dd60048036038101906102d89190611964565b610fe0565b6040516102ec93929190611d96565b60405180910390f35b6102fd61103d565b005b610307611106565b6040516103149190611d7b565b60405180910390f35b61032561110c565b6040516103329190611e44565b60405180910390f35b61034361111f565b6040516103509190611e5f565b60405180910390f35b610361611143565b60405161036e9190611d7b565b60405180910390f35b610391600480360381019061038c9190611964565b611149565b005b61039b611518565b005b6103a561173a565b6040516103b29190611e5f565b60405180910390f35b6103c3611760565b6040516103d293929190611e7a565b60405180910390f35b600260009054906101000a900473ffffffffffffffffffffffffffffffffffffffff1673ffffffffffffffffffffffffffffffffffffffff163373ffffffffffffffffffffffffffffffffffffffff161461043557600080fd5b600480600481111561044a57610449611dcd565b5b603160029054906101000a900460ff16600481111561046c5761046b611dcd565b5b1461047657600080fd5b8160078190555060005b603160009054906101000a900460ff1660ff168110156105c857600981600a81106104ae576104ad611ec6565b5b6004020160030160019054906101000a900460ff16156105b557600981600a81106104dc576104db611ec6565b5b60040201600101546007541061055257600754600982600a811061050357610502611ec6565b5b60040201600101546007546105189190611f24565b60646105249190611f58565b61052e9190611fc9565b600982600a811061054257610541611ec6565b5b60040201600201819055506105b4565b600754600754600983600a811061056c5761056b611ec6565b5b600402016001015461057e9190611f24565b606461058a9190611f58565b6105949190611fc9565b600982600a81106105a8576105a7611ec6565b5b60040201600201819055505b5b80806105c090611ffa565b915050610480565b5060005b603160009054906101000a900460ff1660ff1681101561070d57600981600a81106105fa576105f9611ec6565b5b6004020160030160019054906101000a900460ff16156106fa57600160009054906101000a900473ffffffffffffffffffffffffffffffffffffffff1673ffffffffffffffffffffffffffffffffffffffff1663d5c54bc4600983600a811061066657610665611ec6565b5b6004020160000160009054906101000a900473ffffffffffffffffffffffffffffffffffffffff16600984600a81106106a2576106a1611ec6565b5b60040201600201546040518363ffffffff1660e01b81526004016106c7929190612042565b600060405180830381600087803b1580156106e157600080fd5b505af11580156106f5573d6000803e3d6000fd5b505050505b808061070590611ffa565b9150506105cc565b505050565b603160009054906101000a900460ff1681565b60086020528060005260406000206000915090508060000160009054906101000a900473ffffffffffffffffffffffffffffffffffffffff16908060010154908060020154908060030160009054906101000a900460ff16908060030160019054906101000a900460ff16908060030160029054906101000a900460ff16905086565b600580546107b59061209a565b80601f01602080910402602001604051908101604052809291908181526020018280546107e19061209a565b801561082e5780601f106108035761010080835404028352916020019161082e565b820191906000526020600020905b81548152906001019060200180831161081157829003601f168201915b505050505081565b600260009054906101000a900473ffffffffffffffffffffffffffffffffffffffff1673ffffffffffffffffffffffffffffffffffffffff163373ffffffffffffffffffffffffffffffffffffffff161461089057600080fd5b60018060048111156108a5576108a4611dcd565b5b603160029054906101000a900460ff1660048111156108c7576108c6611dcd565b5b146108d157600080fd5b60001515600860008473ffffffffffffffffffffffffffffffffffffffff1673ffffffffffffffffffffffffffffffffffffffff16815260200190815260200160002060030160009054906101000a900460ff16151514610967576040517f08c379a000000000000000000000000000000000000000000000000000000000815260040161095e90612117565b60405180910390fd5b600073ffffffffffffffffffffffffffffffffffffffff168273ffffffffffffffffffffffffffffffffffffffff16036109d6576040517f08c379a00000000000000000000000000000000000000000000000000000000081526004016109cd90612183565b60405180910390fd5b816009603160009054906101000a900460ff1660ff16600a81106109fd576109fc611ec6565b5b6004020160000160006101000a81548173ffffffffffffffffffffffffffffffffffffffff021916908373ffffffffffffffffffffffffffffffffffffffff16021790555060016009603160009054906101000a900460ff1660ff16600a8110610a6a57610a69611ec6565b5b6004020160030160006101000a81548160ff021916908315150217905550603160009054906101000a900460ff166009603160009054906101000a900460ff1660ff16600a8110610abe57610abd611ec6565b5b6004020160030160026101000a81548160ff021916908360ff1602179055506009603160009054906101000a900460ff1660ff16600a8110610b0357610b02611ec6565b5b60040201600860008473ffffffffffffffffffffffffffffffffffffffff1673ffffffffffffffffffffffffffffffffffffffff1681526020019081526020016000206000820160009054906101000a900473ffffffffffffffffffffffffffffffffffffffff168160000160006101000a81548173ffffffffffffffffffffffffffffffffffffffff021916908373ffffffffffffffffffffffffffffffffffffffff16021790555060018201548160010155600282015481600201556003820160009054906101000a900460ff168160030160006101000a81548160ff0219169083151502179055506003820160019054906101000a900460ff168160030160016101000a81548160ff0219169083151502179055506003820160029054906101000a900460ff168160030160026101000a81548160ff021916908360ff1602179055509050506031600081819054906101000a900460ff1680929190610c6b906121a3565b91906101000a81548160ff021916908360ff160217905550505050565b600260009054906101000a900473ffffffffffffffffffffffffffffffffffffffff1673ffffffffffffffffffffffffffffffffffffffff163373ffffffffffffffffffffffffffffffffffffffff1614610ce257600080fd5b6001806004811115610cf757610cf6611dcd565b5b603160029054906101000a900460ff166004811115610d1957610d18611dcd565b5b14610d2357600080fd5b8360039081610d329190612378565b508260049081610d429190612378565b508160059081610d529190612378565b5050505050565b600981600a8110610d6957600080fd5b600402016000915090508060000160009054906101000a900473ffffffffffffffffffffffffffffffffffffffff16908060010154908060020154908060030160009054906101000a900460ff16908060030160019054906101000a900460ff16908060030160029054906101000a900460ff16905086565b60325481565b60038054610df59061209a565b80601f0160208091040260200160405190810160405280929190818152602001828054610e219061209a565b8015610e6e5780601f10610e4357610100808354040283529160200191610e6e565b820191906000526020600020905b815481529060010190602001808311610e5157829003601f168201915b505050505081565b60048054610e839061209a565b80601f0160208091040260200160405190810160405280929190818152602001828054610eaf9061209a565b8015610efc5780601f10610ed157610100808354040283529160200191610efc565b820191906000526020600020905b815481529060010190602001808311610edf57829003601f168201915b505050505081565b600260009054906101000a900473ffffffffffffffffffffffffffffffffffffffff1673ffffffffffffffffffffffffffffffffffffffff163373ffffffffffffffffffffffffffffffffffffffff1614610f5e57600080fd5b6002806004811115610f7357610f72611dcd565b5b603160029054906101000a900460ff166004811115610f9557610f94611dcd565b5b14610f9f57600080fd5b6003603160026101000a81548160ff02191690836004811115610fc557610fc4611dcd565b5b021790555050565b603160019054906101000a900460ff1681565b600080600080600985600a8110610ffa57610ff9611ec6565b5b6004020190508060000160009054906101000a900473ffffffffffffffffffffffffffffffffffffffff1681600101548260020154935093509350509193909250565b600260009054906101000a900473ffffffffffffffffffffffffffffffffffffffff1673ffffffffffffffffffffffffffffffffffffffff163373ffffffffffffffffffffffffffffffffffffffff161461109757600080fd5b60018060048111156110ac576110ab611dcd565b5b603160029054906101000a900460ff1660048111156110ce576110cd611dcd565b5b146110d857600080fd5b6002603160026101000a81548160ff021916908360048111156110fe576110fd611dcd565b5b021790555050565b60075481565b603160029054906101000a900460ff1681565b60008054906101000a900473ffffffffffffffffffffffffffffffffffffffff1681565b60065481565b600280600481111561115e5761115d611dcd565b5b603160029054906101000a900460ff1660048111156111805761117f611dcd565b5b1461118a57600080fd5b600260009054906101000a900473ffffffffffffffffffffffffffffffffffffffff1673ffffffffffffffffffffffffffffffffffffffff163373ffffffffffffffffffffffffffffffffffffffff160361121a576040517f08c379a0000000000000000000000000000000000000000000000000000000008152600401611211906124bc565b60405180910390fd5b60011515600860003373ffffffffffffffffffffffffffffffffffffffff1673ffffffffffffffffffffffffffffffffffffffff16815260200190815260200160002060030160009054906101000a900460ff161515146112b0576040517f08c379a00000000000000000000000000000000000000000000000000000000081526004016112a790612574565b60405180910390fd5b60001515600860003373ffffffffffffffffffffffffffffffffffffffff1673ffffffffffffffffffffffffffffffffffffffff16815260200190815260200160002060030160019054906101000a900460ff16151503611344576031600181819054906101000a900460ff168092919061132a906121a3565b91906101000a81548160ff021916908360ff160217905550505b81600860003373ffffffffffffffffffffffffffffffffffffffff1673ffffffffffffffffffffffffffffffffffffffff168152602001908152602001600020600101819055506001600860003373ffffffffffffffffffffffffffffffffffffffff1673ffffffffffffffffffffffffffffffffffffffff16815260200190815260200160002060030160016101000a81548160ff021916908315150217905550816009600860003373ffffffffffffffffffffffffffffffffffffffff1673ffffffffffffffffffffffffffffffffffffffff16815260200190815260200160002060030160029054906101000a900460ff1660ff16600a811061144d5761144c611ec6565b5b600402016001018190555060016009600860003373ffffffffffffffffffffffffffffffffffffffff1673ffffffffffffffffffffffffffffffffffffffff16815260200190815260200160002060030160029054906101000a900460ff1660ff16600a81106114c0576114bf611ec6565b5b6004020160030160016101000a81548160ff021916908315150217905550603254421115611514576003603160026101000a81548160ff0219169083600481111561150e5761150d611dcd565b5b02179055505b5050565b600260009054906101000a900473ffffffffffffffffffffffffffffffffffffffff1673ffffffffffffffffffffffffffffffffffffffff163373ffffffffffffffffffffffffffffffffffffffff161461157257600080fd5b600380600481111561158757611586611dcd565b5b603160029054906101000a900460ff1660048111156115a9576115a8611dcd565b5b146115b357600080fd5b60008060008060005b603160009054906101000a900460ff1660ff168110156116c757600981600a81106115ea576115e9611ec6565b5b6004020160030160019054906101000a900460ff16156116b457600981600a811061161857611617611ec6565b5b60040201600101548461162b9190612594565b9350600981600a811061164157611640611ec6565b5b6004020160020154856116549190612594565b9450600981600a811061166a57611669611ec6565b5b6004020160020154600982600a811061168657611685611ec6565b5b60040201600101546116989190611f58565b836116a39190612594565b925081806116b090611ffa565b9250505b80806116bf90611ffa565b9150506115bc565b50838160646116d69190611f58565b6116e09190611f24565b828460646116ee9190611f58565b6116f89190611f24565b6117029190611fc9565b6006819055506004603160026101000a81548160ff0219169083600481111561172e5761172d611dcd565b5b02179055505050505050565b600260009054906101000a900473ffffffffffffffffffffffffffffffffffffffff1681565b60608060606003600460058280546117779061209a565b80601f01602080910402602001604051908101604052809291908181526020018280546117a39061209a565b80156117f05780601f106117c5576101008083540402835291602001916117f0565b820191906000526020600020905b8154815290600101906020018083116117d357829003601f168201915b505050505092508180546118039061209a565b80601f016020809104026020016040519081016040528092919081815260200182805461182f9061209a565b801561187c5780601f106118515761010080835404028352916020019161187c565b820191906000526020600020905b81548152906001019060200180831161185f57829003601f168201915b5050505050915080805461188f9061209a565b80601f01602080910402602001604051908101604052809291908181526020018280546118bb9061209a565b80156119085780601f106118dd57610100808354040283529160200191611908565b820191906000526020600020905b8154815290600101906020018083116118eb57829003601f168201915b50505050509050925092509250909192565b6000604051905090565b600080fd5b600080fd5b6000819050919050565b6119418161192e565b811461194c57600080fd5b50565b60008135905061195e81611938565b92915050565b60006020828403121561197a57611979611924565b5b60006119888482850161194f565b91505092915050565b600060ff82169050919050565b6119a781611991565b82525050565b60006020820190506119c2600083018461199e565b92915050565b600073ffffffffffffffffffffffffffffffffffffffff82169050919050565b60006119f3826119c8565b9050919050565b611a03816119e8565b8114611a0e57600080fd5b50565b600081359050611a20816119fa565b92915050565b600060208284031215611a3c57611a3b611924565b5b6000611a4a84828501611a11565b91505092915050565b611a5c816119e8565b82525050565b611a6b8161192e565b82525050565b60008115159050919050565b611a8681611a71565b82525050565b600060c082019050611aa16000830189611a53565b611aae6020830188611a62565b611abb6040830187611a62565b611ac86060830186611a7d565b611ad56080830185611a7d565b611ae260a083018461199e565b979650505050505050565b600081519050919050565b600082825260208201905092915050565b60005b83811015611b27578082015181840152602081019050611b0c565b60008484015250505050565b6000601f19601f8301169050919050565b6000611b4f82611aed565b611b598185611af8565b9350611b69818560208601611b09565b611b7281611b33565b840191505092915050565b60006020820190508181036000830152611b978184611b44565b905092915050565b600080fd5b600080fd5b7f4e487b7100000000000000000000000000000000000000000000000000000000600052604160045260246000fd5b611be182611b33565b810181811067ffffffffffffffff82111715611c0057611bff611ba9565b5b80604052505050565b6000611c1361191a565b9050611c1f8282611bd8565b919050565b600067ffffffffffffffff821115611c3f57611c3e611ba9565b5b611c4882611b33565b9050602081019050919050565b82818337600083830152505050565b6000611c77611c7284611c24565b611c09565b905082815260208101848484011115611c9357611c92611ba4565b5b611c9e848285611c55565b509392505050565b600082601f830112611cbb57611cba611b9f565b5b8135611ccb848260208601611c64565b91505092915050565b600080600060608486031215611ced57611cec611924565b5b600084013567ffffffffffffffff811115611d0b57611d0a611929565b5b611d1786828701611ca6565b935050602084013567ffffffffffffffff811115611d3857611d37611929565b5b611d4486828701611ca6565b925050604084013567ffffffffffffffff811115611d6557611d64611929565b5b611d7186828701611ca6565b9150509250925092565b6000602082019050611d906000830184611a62565b92915050565b6000606082019050611dab6000830186611a53565b611db86020830185611a62565b611dc56040830184611a62565b949350505050565b7f4e487b7100000000000000000000000000000000000000000000000000000000600052602160045260246000fd5b60058110611e0d57611e0c611dcd565b5b50565b6000819050611e1e82611dfc565b919050565b6000611e2e82611e10565b9050919050565b611e3e81611e23565b82525050565b6000602082019050611e596000830184611e35565b92915050565b6000602082019050611e746000830184611a53565b92915050565b60006060820190508181036000830152611e948186611b44565b90508181036020830152611ea88185611b44565b90508181036040830152611ebc8184611b44565b9050949350505050565b7f4e487b7100000000000000000000000000000000000000000000000000000000600052603260045260246000fd5b7f4e487b7100000000000000000000000000000000000000000000000000000000600052601160045260246000fd5b6000611f2f8261192e565b9150611f3a8361192e565b9250828203905081811115611f5257611f51611ef5565b5b92915050565b6000611f638261192e565b9150611f6e8361192e565b9250828202611f7c8161192e565b91508282048414831517611f9357611f92611ef5565b5b5092915050565b7f4e487b7100000000000000000000000000000000000000000000000000000000600052601260045260246000fd5b6000611fd48261192e565b9150611fdf8361192e565b925082611fef57611fee611f9a565b5b828204905092915050565b60006120058261192e565b91507fffffffffffffffffffffffffffffffffffffffffffffffffffffffffffffffff820361203757612036611ef5565b5b600182019050919050565b60006040820190506120576000830185611a53565b6120646020830184611a62565b9392505050565b7f4e487b7100000000000000000000000000000000000000000000000000000000600052602260045260246000fd5b600060028204905060018216806120b257607f821691505b6020821081036120c5576120c461206b565b5b50919050565b7f4163636f756e7420686173206265656e20726567697374657265642100000000600082015250565b6000612101601c83611af8565b915061210c826120cb565b602082019050919050565b60006020820190508181036000830152612130816120f4565b9050919050565b7f5a65726f206163636f756e742063616e206e6f74206a6f696e65642100000000600082015250565b600061216d601c83611af8565b915061217882612137565b602082019050919050565b6000602082019050818103600083015261219c81612160565b9050919050565b60006121ae82611991565b915060ff82036121c1576121c0611ef5565b5b600182019050919050565b60008190508160005260206000209050919050565b60006020601f8301049050919050565b600082821b905092915050565b60006008830261222e7fffffffffffffffffffffffffffffffffffffffffffffffffffffffffffffffff826121f1565b61223886836121f1565b95508019841693508086168417925050509392505050565b6000819050919050565b600061227561227061226b8461192e565b612250565b61192e565b9050919050565b6000819050919050565b61228f8361225a565b6122a361229b8261227c565b8484546121fe565b825550505050565b600090565b6122b86122ab565b6122c3818484612286565b505050565b5b818110156122e7576122dc6000826122b0565b6001810190506122c9565b5050565b601f82111561232c576122fd816121cc565b612306846121e1565b81016020851015612315578190505b612329612321856121e1565b8301826122c8565b50505b505050565b600082821c905092915050565b600061234f60001984600802612331565b1980831691505092915050565b6000612368838361233e565b9150826002028217905092915050565b61238182611aed565b67ffffffffffffffff81111561239a57612399611ba9565b5b6123a4825461209a565b6123af8282856122eb565b600060209050601f8311600181146123e257600084156123d0578287015190505b6123da858261235c565b865550612442565b601f1984166123f0866121cc565b60005b82811015612418578489015182556001820191506020850194506020810190506123f3565b868310156124355784890151612431601f89168261233e565b8355505b6001600288020188555050505b505050505050565b7f41646d696e2073686f756c64206e6f74206a6f696e20746f207072696365206160008201527f2070726f64756374000000000000000000000000000000000000000000000000602082015250565b60006124a6602883611af8565b91506124b18261244a565b604082019050919050565b600060208201905081810360008301526124d581612499565b9050919050565b7f4f6e6c7920746865207061727469636970616e74732077686f2072656769737460008201527f657265642062792061646d696e2063616e20707269636520612070726f64756360208201527f7421000000000000000000000000000000000000000000000000000000000000604082015250565b600061255e604283611af8565b9150612569826124dc565b606082019050919050565b6000602082019050818103600083015261258d81612551565b9050919050565b600061259f8261192e565b91506125aa8361192e565b92508282019050808211156125c2576125c1611ef5565b5b9291505056fea26469706673582212205d17f7625dd21308922051cdccb0a738f0632c640463eadc52fb16c9436bae6564736f6c63430008120033",
  "immutableReferences": {},
  "source": "// SPDX-License-Identifier: MIT\npragma solidity ^0.8.9;\n\n// Interface of Main contract to call from Session contract\ninterface IMain {\n    function addSession(address session) external;\n    function enterParticipant(string memory _name, string  memory _email) external;\n    function updateParticipantByAdmin(\n        address _account,\n        string memory _name,\n        string memory _email,\n        uint256 _numSessionsPerformed,\n        uint256 _deviation\n    ) external;\n    function updateParticipantByUser(string memory _name, string  memory _email) external;\n    function updateDeviation(address _participantAddr, uint256 _newDeviation) external;\n    function getAParticipant(address _participant) \n    external view returns(address, string memory, string memory, uint256, uint256);\n    function getAdmin() external view returns(address);\n\n}\n\ncontract Session {\n    /**\n     * Main contract address to add to a new session \n     * An instance from main contract\n     */\n    address public mainContract;\n    IMain MainContract;\n    address public admin; // to save an admin address from the main contract\n\n    string public productName; // Product name\n    string public productDescription; // Product description\n    string public productImages; // specific image.\n\n    uint256 public proposedPrice; // the price is proposed based on all given price and their's deviation\n    uint256 public finalPrice; // when the session is ended, the final price is up to date\n\n    // struct of participants who joined to the pricing session \n    struct IsessionParticipant{\n        address participantAddress; // address of participant who joined to the session\n        uint256 participantPrice;   // a given price from a participant\n        uint256 newDeviation;          // deviation of a participant\n        bool registered;                // a status of the participants registered or not\n        bool sessionJoined;          // a status of the participant who joined to price a product\n        uint8 participantID;        // Participant ID of the session\n    }\n    mapping(address => IsessionParticipant) public sessionParticipantsDetails;\n    IsessionParticipant [10] public sessionParticipants; // a list of participants of the session\n    \n    uint8 public participantCount = 0; // counter of participants \n    uint8 public joinedParticipantCount = 0; // counter of participant who has joined\n    \n    // State of the pricing session \n    enum State {INITIATED, CREATED, STARTED, CLOSING, CLOSED}\n    State public state = State.INITIATED; // Initiated state for a session\n    \n    uint256 public timeout; // timeout for a pricing session\n\n    constructor(\n        address _mainContract,\n        string memory _productName,\n        string memory _productDescription,\n        string memory _productImages\n    ){\n        // Get Main Contract instance\n        mainContract = _mainContract;\n        MainContract = IMain(_mainContract);\n\n        // admin address from main contract\n        admin = MainContract.getAdmin();\n        \n        // Init Session contract with the product information\n        productName = _productName;\n        productDescription = _productDescription;\n        productImages = _productImages;\n        // state of the session change to CREATED\n        state = State.CREATED;\n        \n        // Init a timer to pricing session\n\n        timeout = block.timestamp + 1 days;\n\n        // Call Main Contract function to link current contract.\n        MainContract.addSession(address(this));\n    }\n    /**\n     * @dev a modifier to check the current state of a session \n     */\n    modifier stateCheck(State currentState){\n        require(state == currentState);\n        _;\n    }\n    /**\n     * @dev a modifier: Admin only\n     */\n    modifier onlyAdmin{\n        require(msg.sender == admin);\n        _;\n    }\n    // TODO: Functions\n    /**\n     * @dev Update production information before the session begins\n     * @param _productName: change the product name if any\n     * @param _productDescription: change the product description if any\n     * @param _productImages Change the list of images if any\n     */\n    function updateProductInfo(\n        string memory _productName,\n        string memory _productDescription,\n        string  memory _productImages\n    ) public onlyAdmin stateCheck(State.CREATED){\n        productName = _productName;\n        productDescription = _productDescription;\n        productImages = _productImages;\n    }\n    \n    /**\n     * @dev register participants to join a pricing session\n     * Participants are less than 10 people\n     */\n    function register(address _participant) public onlyAdmin stateCheck(State.CREATED){\n        // require(\n        //     sessionParticipants[participantCount].registered == false,\n        //     \"Account has been registered!\" \n        // );\n        require(\n            sessionParticipantsDetails[_participant].registered == false,\n            \"Account has been registered!\" \n        );\n        require(\n            _participant != address(0),\n            \"Zero account can not joined!\" \n        );\n        sessionParticipants[participantCount].participantAddress = _participant;\n        sessionParticipants[participantCount].registered = true;\n        sessionParticipants[participantCount].participantID = participantCount;\n        sessionParticipantsDetails[_participant] = sessionParticipants[participantCount];\n        participantCount++;\n\n    }\n\n    /**\n     * @dev Only Admin can be able to start a pricing session\n     */\n    function startPricingSession() public onlyAdmin stateCheck(State.CREATED){\n        // the state allows participants start to price\n        state = State.STARTED; \n\n    }\n    /**\n     * @dev participants are able to start to price a product\n     * @param _price is a given price that a participant prices\n     * The participants can price a product many time during the session started. \n     */\n    function priceProduct(uint256 _price) public stateCheck(State.STARTED){\n        require(msg.sender != admin,\"Admin should not join to price a product\");\n        require(\n            sessionParticipantsDetails[msg.sender].registered == true, \n            \"Only the participants who registered by admin can price a product!\" \n        );\n        if(sessionParticipantsDetails[msg.sender].sessionJoined == false){\n            joinedParticipantCount++; // increase 1 time for one address for the 1st time// 2nd times not count\n        }\n        sessionParticipantsDetails[msg.sender].participantPrice = _price;\n        sessionParticipantsDetails[msg.sender].sessionJoined = true;\n        // Update the same to sessionParticipants array (from sessionParticipantsDetails[msg.sender])\n        sessionParticipants[sessionParticipantsDetails[msg.sender].participantID].participantPrice = _price;\n        sessionParticipants[sessionParticipantsDetails[msg.sender].participantID].sessionJoined = true;\n        if(block.timestamp > timeout){\n            state = State.CLOSING;\n        }\n    }\n    /**\n     * @dev close a pricing session by admin \n     * Update the state of the pricing session \n     */\n    function closePricingSession() public onlyAdmin stateCheck(State.STARTED){\n        state = State.CLOSING;\n    }\n\n\n    /**\n     * @dev calculate the proposed price for the session\n     * change the state from CLOSING TO CLOSED for calculating\n     */\n    function calculateProposedPrice() public onlyAdmin stateCheck(State.CLOSING){\n        uint256 totalDeviation;\n        uint256 totalPrice;\n        uint256 totalMultiple;\n        uint256 totalParticipant;\n        for(uint i =0; i < participantCount; i++){\n            if(sessionParticipants[i].sessionJoined){\n                totalPrice += sessionParticipants[i].participantPrice;\n                totalDeviation += sessionParticipants[i].newDeviation;\n                totalMultiple += sessionParticipants[i].participantPrice*sessionParticipants[i].newDeviation;\n                totalParticipant++;\n            }\n        }\n        proposedPrice = (100*totalPrice - totalMultiple)/(100*totalParticipant - totalDeviation);\n        state = State.CLOSED; // state is closed when finishing the proposed price calculated\n    }\n    \n    /**\n     * @dev calculate the deviation of a participant based on final price and proposed price\n     * @param _finalPrice set a final price based on final Price and update deviation\n     * Set a final price\n     */\n    function calculateDeviation(uint256 _finalPrice) public onlyAdmin stateCheck(State.CLOSED){\n        finalPrice = _finalPrice; // update final price\n        for(uint i =0; i < participantCount; i++){\n            if(sessionParticipants[i].sessionJoined){\n                if(finalPrice >= sessionParticipants[i].participantPrice){\n                    sessionParticipants[i].newDeviation = 100*(finalPrice - sessionParticipants[i].participantPrice)/finalPrice;\n                }else{\n                    sessionParticipants[i].newDeviation = 100*(sessionParticipants[i].participantPrice - finalPrice)/finalPrice;\n                }\n            }\n        }\n        // Update deviation to the main contract\n        for(uint i =0; i < participantCount; i++){\n            if(sessionParticipants[i].sessionJoined){\n                MainContract.updateDeviation(\n                    sessionParticipants[i].participantAddress,\n                    sessionParticipants[i].newDeviation\n                );\n            }\n        }\n    }\n    \n    /**\n      * @dev get Participant information from the pricing session\n      * @param index to check a specific partipant has priced\n      */\n    function getSessionParticipant(uint index) public view \n    returns(address, uint256, uint256 ){\n        IsessionParticipant storage participant = sessionParticipants[index];\n        return(\n            participant.participantAddress,\n            participant.participantPrice,\n            participant.newDeviation\n        );\n    }\n\n    /**\n     * @dev get the product information\n     */\n    function getProductInfo() public view returns(string memory, string memory, string memory){\n        return(\n            productName,\n            productDescription,\n            productImages\n        );\n    }\n\n\n}\n",
  "sourcePath": "C:\\Users\\Hi Windows 11\\Desktop\\MyBaby\\Coin\\Blockchain_course_Funix\\PO5_Project\\FunixPricingChain v2\\truffle\\contracts\\Session.sol",
  "compiler": {
    "name": "solc",
    "version": "0.8.18+commit.87f61d96.Emscripten.clang"
  },
  "schemaVersion": "3.4.11",
  "updatedAt": "2023-02-11T10:50:37.333Z",
  "devdoc": {
    "kind": "dev",
    "methods": {
      "calculateDeviation(uint256)": {
        "details": "calculate the deviation of a participant based on final price and proposed price",
        "params": {
          "_finalPrice": "set a final price based on final Price and update deviation Set a final price"
        }
      },
      "calculateProposedPrice()": {
        "details": "calculate the proposed price for the session change the state from CLOSING TO CLOSED for calculating"
      },
      "closePricingSession()": {
        "details": "close a pricing session by admin  Update the state of the pricing session "
      },
      "getProductInfo()": {
        "details": "get the product information"
      },
      "getSessionParticipant(uint256)": {
        "details": "get Participant information from the pricing session",
        "params": {
          "index": "to check a specific partipant has priced"
        }
      },
      "priceProduct(uint256)": {
        "details": "participants are able to start to price a product",
        "params": {
          "_price": "is a given price that a participant prices The participants can price a product many time during the session started. "
        }
      },
      "register(address)": {
        "details": "register participants to join a pricing session Participants are less than 10 people"
      },
      "startPricingSession()": {
        "details": "Only Admin can be able to start a pricing session"
      },
      "updateProductInfo(string,string,string)": {
        "details": "Update production information before the session begins",
        "params": {
          "_productDescription": ": change the product description if any",
          "_productImages": "Change the list of images if any",
          "_productName": ": change the product name if any"
        }
      }
    },
    "version": 1
  },
  "userdoc": {
    "kind": "user",
    "methods": {
      "mainContract()": {
        "notice": "Main contract address to add to a new session  An instance from main contract"
      }
    },
    "version": 1
  }
}